:020000040800F2
:100000008817002009010008071E0008231B0008AC
:10001000051E00080D050008733D000800000000E3
:100020000000000000000000000000008D22000819
:100030003906000800000000CD200008E328000871
:100040002301000823010008230100082301000800
:1000500023010008230100082301000823010008F0
:1000600023010008230100082301000823010008E0
:1000700023010008230100082301000823010008D0
:1000800023010008230100082301000823010008C0
:10009000013D000823010008230100082301000896
:1000A000000000002301000823010008992900082E
:1000B0002301000823010008230100082301000890
:1000C0002301000823010008230100082301000880
:1000D0002301000823010008230100082301000870
:1000E0003B06000823010008230100082301000843
:1000F00023010008DFF80CD000F0BCF900480047ED
:10010000DD3D000888170020064880470648004764
:10011000FEE7FEE7FEE7FEE7FEE7FEE7FEE7FEE7B7
:10012000FEE7FEE749290008F500000840EA010360
:100130009B0703D009E008C9121F08C0042AFAD29D
:1001400003E011F8013B00F8013B521EF9D2704761
:10015000D2B201E000F8012B491EFBD27047002209
:10016000F6E710B513460A4604461946FFF7F0FFB6
:10017000204610BD30B480EA010202F0004530F0A4
:10018000004221F0004013D090B1C30DD40DC2F352
:100190001601C0F31600E41A41F4000140F4000215
:1001A0007D34914201D3641C00E04900002C02DA46
:1001B00030BC002070474FF400000023914201D36F
:1001C000891A034340084FEA4101F7D151B19142E6
:1001D00002D14FF0004105E002D24FF0010101E0F1
:1001E0006FF0010103EBC450284430BC00F0AEB8FE
:1001F0002DE9F04D81EA030404F0004B21F00045A5
:1002000014464FF0000A23F0004150EA050220D0C6
:1002100054EA01021DD0C5F30A570246C5F3130381
:10022000C1F31300C1F30A5640F4801543F4801360
:10023000A7EB0608101BD64608F2FD3873EB050045
:1002400002D308F1010801E092185B41B8F1000FF8
:1002500003DA00200146BDE8F08D00204FF4801144
:10026000064684460EE0171B73EB050705D3121BE9
:1002700063EB050306434CEA010C49084FEA3000E2
:1002800092185B4150EA0107EDD152EA030012D007
:1002900082EA040083EA0501084305D0101BAB4144
:1002A00006D20122002306E000224FF0004302E0C4
:1002B0006FF0010253101AEB06004CEB085110EBE3
:1002C0000A0041EB0B01BDE8F04D00F076B8C10F1C
:1002D00080EAE0700844CA079623002100F03FB886
:1002E0000EB540F2334102910021CDE900110A46DA
:1002F0000B4600F071F803B000BDC1F30A5210B50F
:10030000C1F3130140F2FF3341F480119A4201DA44
:10031000002010BD40F233439A42A2F2334203DC84
:10032000524200F003F810BD904010BD202A04DBBB
:10033000203A21FA02F00021704721FA02F3D0405E
:10034000C2F1200291400843194670470029A8BF16
:100350007047401C490008BF20F00100704710B4EE
:10036000B0FA80FC00FA0CF050EA010404BF10BCA3
:10037000704749B1CCF1200421FA04F411FA0CF1D0
:1003800018BF012121430843A3EB0C01CB1D4FEA09
:1003900000614FEA102042BF002010BC704700EB04
:1003A000C35010440029A4BF10BC7047401C490032
:1003B00008BF20F0010010BC704710B5141E73F187
:1003C000000408DA401C41F1000192185B411A4315
:1003D00001D120F0010010BD2DE9F04D92469B4661
:1003E00011B1B1FA81F202E0B0FA80F22032904607
:1003F00000F052F804460F4640EA0A0041EA0B01B9
:1004000053465A46084313D0114653EA010019D007
:10041000C8F140025046FFF789FF05460E46504698
:100420005946424600F038F8084305D0012004E060
:1004300020463946BDE8F08D0020054346EAE076C7
:100440002C4337430A986305E40AA0EB0800002216
:10045000FD0A44EA47540A3002D500200146E9E784
:10046000010510196941DDE9084500196941BDE838
:10047000F04DA2E7064C074D06E0E06840F00103AE
:1004800094E8070098471034AC42F6D3FFF736FEE5
:10049000343F0008543F0008202A04DB203A00FAC9
:1004A00002F1002070479140C2F1200320FA03F3CB
:1004B00019439040704770B58C1810F8015B15F027
:1004C000070301D110F8013B2A1106D110F8012BC6
:1004D00003E010F8016B01F8016B5B1EF9D12B07EB
:1004E00005D40023521E0DD401F8013BFAE710F8A1
:1004F000013BCB1A921C03E013F8015B01F8015B8E
:10050000521EF9D5A142D8D3002070BDFEE70000ED
:100510002DE9F041164E00244FF400774FF001080A
:100520003946304600F09EF90028F9D0282003F023
:1005300041FC3946304600F095F990B139463046D5
:1005400000F090F90028F9D1C4F1070108FA01F090
:100550002843C5B2641CE4B2082CE1D32846BDE8A8
:10056000F081C4F1070108FA01F08543F2E70000C9
:1005700000040240002070470020704710B50022A0
:100580000449054802F070FB0449034802F066FB89
:10059000002010BD100B00208C0200202807002036
:1005A00010B50146034802F059FB024802F03AFB3D
:1005B000002010BD8C02002070B5282003F0FAFB4B
:1005C0000B4C4FF400752946204600F04BF908B15A
:1005D000002070BD2946204600F044F90028F9D0DB
:1005E0002946204600F03EF90028F9D1012070BDCF
:1005F0000004024070B50D4D4FF4007421462846AA
:1006000002F05CF900222146284600F036F912205B
:1006100000F024F801222146284600F02EF9214658
:100620002846BDE8704002F036B9000000040240E0
:1006300001F068BE01F03ABE704710B54FF40050AB
:1006400000F03EF84FF4804000F03AF8BDE810406A
:100650004FF4004000F034B87047000070B5044615
:1006600000F010F90546601C02D0044840680444BC
:1006700000F008F9401BA042FAD370BD84000020AE
:1006800008B5FFF7D7FF012812D16946122001F003
:10069000E3FFFF21122002F0DFF89DF80010074869
:1006A0000A0701D5022102E0490602D50121417065
:1006B00008BDFFF7BDFF02F049F808BD00000020AB
:1006C000044910B50A68024202D00860FFF7D8FF5B
:1006D00010BD0000140401402DE9F84FDFF864B1AB
:1006E00000234FF0010C4FF0030A4FF00F090BF1FC
:1006F000040EA0E00CFA03F6324072D04C68022CD3
:1007000001D0122C0ED1DC0800EB8408D8F8204070
:100710005D07EF0E09FA07F5AC430D69BD402543AF
:10072000C8F8205007685D0091F804800AFA05F4C3
:1007300008F00308A74308FA05F848EA0708C0F8D4
:1007400000804F68012F05D0022F03D0112F01D058
:10075000122F11D18768D1F80C80A74308FA05F849
:1007600048EA0708C0F808804768B7430E79C6F31F
:1007700000169E403E434660C668A6438C68AC4067
:100780003443C4604C68E40054D52F4C256845F0D0
:1007900001052560246823F0030504F0010400949A
:1007A0002A4C2544AF689C07240F09FA04F6B74386
:1007B000274EB04201D1002615E0264EB04201D1AD
:1007C000012610E0244EB04201D102260BE0234E58
:1007D000B04201D1032606E0214EB04202D10426E8
:1007E00001E027E00526A6403E43AE60DBF800406E
:1007F0005D464E689443F60300D514432C60DEF842
:10080000004075464E689443B60300D514432C60EF
:100810000C4D08352C684E689443F60200D51443FD
:100820002C60084D0C352C684E689443B60200D5F8
:1008300014432C605B1C0A6832FA03F47FF45AAF4D
:10084000BDE8F88F0004014020380240000001405C
:10085000000002400004024000080240000C024078
:10086000001002400069084000D001207047426932
:100870000A4200D00904816170470AB18161704762
:100880000904FBE7014880687047000084000020ED
:1008900002488168426811448160704784000020EA
:1008A00010B50024032000F079F8002000F008F8CB
:1008B00008B1012401E000F025F8204610BD000039
:1008C00070B50E4E05460024706898B14FF47A71E9
:1008D000B1FBF0F00A490968B1FBF0F000F04BFF02
:1008E00040B9102D06D200222946501E00F036F8DD
:1008F000356000E00124204670BD00008400002027
:10090000900000200D4808B5016841F000410160E9
:10091000016801F000410091011F0A6842F00102E4
:100920000A60096801F001010091016841F08051FD
:100930000160006800F08050009008BD243802403B
:10094000002809DB00F01F020121914040098000CE
:1009500000F1E020C0F8001170470000F0B40E4B29
:100960001B680C46C3F30223C3F10705042D00D90D
:100970000425191D072901D2002300E0DB1E0126F2
:1009800006FA05F1491E214099409E40761E164008
:100990003143F0BC03F0EEB90CED00E0064900F085
:1009A000070208684FF6FF03184040EA0220034A96
:1009B00010430860704700000CED00E00000FA05ED
:1009C00010B50C0605D501F0070100EB41102830E9
:1009D00003E000EB411000F5947099B232B10122AE
:1009E00002730181190C4181002010BD00220273A5
:1009F000C180F9E7704700EB4112D0F86802D26B72
:100A000002F021BB00EB4112D0F86802D2F83C2181
:100A100002F07CBB70B504460B0601F0070004EB46
:100A200040114FF001024FF0000503D581F8292055
:100A3000283103E081F8295101F59471087094F888
:100A40002802012808D084F82822206802F09AFFA2
:100A500084F82852002070BD022070BD70B5044695
:100A600001F00F006268904201D9012070BD0B06B1
:100A700001F0070004EB40114FF001024FF00005B8
:100A800003D581F82920283103E081F8295101F5A7
:100A900094718D70087094F82802012808D084F8A9
:100AA0002822206803F00FF884F82852002070BD37
:100AB000022070BD01F0070100EB4110D0F84401A5
:100AC00070472DE9F04104460F0601F0070004EBE2
:100AD00040114FF001064FF0000503D581F8296061
:100AE000283103E081F8295101F5947108700A61F9
:100AF000CB704A7802B1C881022B00D10D7194F8F5
:100B00002802012809D084F82862206802F00AFE31
:100B1000284684F82852BDE8F0810220FBE770B532
:100B20000C4601F0070500EB4511C1E94F230022F7
:100B3000C1F8442181F8292181F8285101F59471E7
:100B40006207006803F014F8002070BD70B5044619
:100B50000D4601F007006168884201D9012070BD8F
:100B600029064FF000064FF0010205D504EB4011B5
:100B700081F82920283105E004EB451181F829612D
:100B800001F594718A70087094F82802012807D042
:100B900084F82822206802F0D2FF680702D006E01D
:100BA000022070BD04F50C71206802F08AFF84F801
:100BB0002862002070BD70B50C4601F0070500EBFF
:100BC0004511C1E90F2300224A64012281F829203E
:100BD00001F8285F6207006802F0CAFF002070BDBC
:100BE00010B50446006803F091F8000402D52046D1
:100BF00001F00AF9206803F089F840050CD5206857
:100C000030F8441F21F480610180204600F0DCF8B8
:100C10000021204600F0F3F8206803F077F8400444
:100C200005D5206830F8441F21F4804101802068F8
:100C300003F06CF8800405D5206830F8441F21F4D7
:100C400000510180206803F061F8C00414D52068C9
:100C500030F8401F21F004010180206830F8401F67
:100C600021F008010180204600F0C1F8206830F82A
:100C7000441F21F480510180206803F047F80005EB
:100C80001AD5206830F8401F41F008010180206823
:100C900030F8441F21F400610180206830F8401FC3
:100CA00041F004010180206803F030F8C043C00423
:100CB00002D5204600F0D8F8206803F027F8800518
:100CC00008D5206830F8441F21F4007101802046C7
:100CD00000F091F8206803F019F8C00505D52068E8
:100CE00030F8441F21F48071018010BD70B586B0CA
:100CF000040004D094F82902002518B107E001206F
:100D000006B070BD84F82852204600F03FF803205A
:100D100084F82902206802F0CDFE002001260CE0B4
:100D200004EB401181F8296001F8280FC881CD70CB
:100D30000D614D61401CC0B28D6161688142EFD888
:100D400000200FE004EB401181F8295181F82801BF
:100D500081F82B51C1F83851C1F83C51401CC0B248
:100D6000C1F8405161688142ECD8142204F11001AD
:100D70006846FFF7DBF994E80F0002F08CFE84F878
:100D8000245084F829620020BAE7000008B5006802
:100D90000B49884212D10B48016841F400010160FF
:100DA0000068002200F40000009011461420FFF7B4
:100DB000D5FDBDE808401420FFF7C2BD08BD000006
:100DC000005C00402438024070B50446806801256C
:100DD000022801D0FFF740FC2946D4F8680202F04F
:100DE00078FAD4F86802BDE8704002F038BAD0F85A
:100DF000680202F05CBAD0F8680202F05EBA10B580
:100E0000044690F8280201280BD0012084F828021B
:100E100084F82410206802F093FF002084F8280250
:100E200010BD022010BDD0F8682200F50C711046EC
:100E300002F05BBA10B5044690F82802012810D0E1
:100E4000012084F8280201462046FFF7D3FD2068E0
:100E500002F01FFE206802F04CFF002084F82802F8
:100E600010BD022010BD000010B50446D0F8680285
:100E700002F07AFAA069002804D00348016841F022
:100E80000601016010BD000010ED00E02DE9F04703
:100E90000E46050079D0DFF88481D8F8000000F014
:100EA0000100B04214D2012E05D1D8F8001041F053
:100EB0000401C8F80010D8F8001021F001013143F6
:100EC000C8F80010D8F8000000F00100B0425CD172
:100ED0002878534C800705D52068A96820F0F000D9
:100EE000084320602878C0075CD04D4968680839FD
:100EF00002281AD003281BD0096801281BD08905B5
:100F0000002966DA216821F0030101432160FFF71F
:100F1000B9FC6968074641F28830022914D00329D8
:100F200020D0012981462AD038E009688903E7E703
:100F300009688901E4E78907E2E700BFFFF7A2FC3F
:100F4000C11B494501D926E081462068C0F38100D4
:100F50000228F3D126E000BFFFF794FCC11B4945EE
:100F600001D918E081462068C0F381000328F3D13D
:100F700018E000BFFFF786FCC11B49450BD820686D
:100F8000C0F381000128F5D10CE022E0FFF77AFCE4
:100F9000C11B494502D90320BDE8F087206810F045
:100FA0000C0FF3D1D8F80010404601F00101B14216
:100FB00011D9012E03D1016841F0040101600168DB
:100FC00021F0010131430160006800F00100B042EE
:100FD00001D00120E0E72878400705D52068E968BE
:100FE00020F4E060084320602878000706D52068D8
:100FF000296920F4605040EAC100206000F018F830
:101000002168084AC1F30311515CC84006490860D1
:1010100006480068BDE8F047FFF752BC003C0240BC
:1010200008380240213F0008900000208400002082
:10103000134A116801F00C0004280CD008280CD0C9
:101040000C280CD0101F0068C0F342314FF4004050
:10105000491C884070470B4870470B4870470B4845
:10106000C1F383431268C05CC1F38151491CD203B0
:1010700001D5054A00E0034A5043B0FBF1F0704748
:10108000083802400024F40000127A00183F0008DB
:101090002DE9F84F04007DD0FC480168006801F09C
:1010A0000C0700F480362078F94DC00741D0082F96
:1010B00012D00C2F02D1B6F5803F0DD06068012808
:1010C00011D008B1052818D0286820F48030286095
:1010D000286820F4802009E02868800329D560680A
:1010E0000028D8D025E0286840F480302860606867
:1010F00090B1FFF7C7FB80460AE0286840F48020E3
:101100002860F0E7FFF7BEFBA0EB080064287BD85F
:1011100028688003F6D50CE0FFF7B4FB804605E0B5
:10112000FFF7B0FBA0EB08006428F0D82868800324
:10113000F6D42078DFF85CB3DFF85C8380074FF0EB
:1011400001094FF0000A35D5042F0AD00C2F00D129
:101150003EB1E068F8B1C8F80090FFF793FB06468F
:101160000BE0286880070BD5E068012812D107E062
:10117000FFF788FB801B0228C9D828688007F7D5AD
:10118000DBF80010226921F4F85141EA0221CBF882
:1011900000100FE077E1C8F800A0FFF773FB0646E8
:1011A00005E000BFFFF76EFB801B0228AFD8286860
:1011B0008007F7D42078C00674D53FB1A069E0B3AA
:1011C000C8F82090FFF75EFB06464AE028688005D5
:1011D00002D5A069002884D0206ADBF800105E46A2
:1011E00001F46041884210D900F072FF0028BDD19F
:1011F0003068216A20F4604008433060217F306805
:1012000061F31F6030600FE096E0316821F46041C7
:1012100001433160217F306861F31F603060206AD4
:1012200000F056FF0028A1D1216A4FF4004009EBDD
:10123000513188409549096800E025E0974AC1F39B
:101240000311515CC8409649086096480068FFF752
:1012500037FB00286FD125E0FFF714FB801B022825
:101260006AD828688005F7D5DBF80010226A21F4D7
:1012700060411143CBF80010227FDBF8001062F3CD
:101280001F61CBF800100DE0C8F820A0FFF7FAFAB4
:10129000064604E0FFF7F6FA801B02284CD82868BF
:1012A0008005F7D42078804E000722D57F486169F9
:1012B00081B1C0F80090FFF7E5FA834606E000BF71
:1012C000FFF7E0FAA0EB0B00022835D83068800762
:1012D000F6D50EE0C0F800A0FFF7D4FA834605E08B
:1012E000FFF7D0FAA0EB0B00022825D83068800762
:1012F000F6D4207840076DD56B484FF0000B1038BE
:101300000068C0000BD468481038016841F0805173
:10131000016000684FF0010B00F0805000906448BD
:101320000168C90514D4016841F480710160FFF7B8
:10133000A9FA009008E08DE079E000BFFFF7A2FA7B
:101340000099401A642872D859480068C005F5D53C
:10135000A06801280AD008B1052811D0306820F40F
:1013600080703060306820F4806002E0306840F4C3
:1013700080703060A068A8B1FFF784FA00900DE09B
:10138000306840F480603060F0E700BFFFF77AFA21
:101390000099411A41F2883081425AD8306880055C
:1013A000F4D50EE0FFF76EFA009007E0FFF76AFA57
:1013B0000099411A41F2883081424AD8306880054C
:1013C000F4D4BBF1000F05D037481038016821F084
:1013D00080510160606A58B30C2F41D002285046FA
:1013E00005D0C8F86000FFF74DFA044634E04746E0
:1013F000C8F86000FFF746FA064604E0FFF742FA35
:10140000801B022825D828688001F7D4D4E90A1067
:1014100001431E48226B036823F47D031A431143E2
:101420000160C7F86090FFF72DFA044607E010E06E
:1014300040E000BFFFF726FA001B022809D8286801
:101440008001F7D536E000BFFFF71CFA001B022829
:1014500002D90320BDE8F88F28688001F4D429E080
:101460000128F7D009480068A26A00F4803191424F
:1014700009D1E26A00F47011914204D1216B00F4A9
:101480004000884216D00120E4E7000008380240FE
:10149000003802400438024000004742213F000863
:1014A000900000208400002034380240800647422B
:1014B000007000400020CDE770B5040005D0002585
:1014C000A56294F8510010B106E0012070BD84F8C7
:1014D0005050204600F02AF8022084F8510020687D
:1014E000016821F040010160D4E901010843D4E919
:1014F00003121143084361690843218B01F4007111
:101500000843E1690843216A0843A16A0843216846
:101510000860A069042101EA1040216848606565FF
:10152000012084F85100002070BD000010B586B085
:10153000044614216846FEF712FE134920688842CB
:1015400020D11248016841F480510160006800F424
:10155000805005900D48001F016841F001010160B5
:101560000068694600F001000590E020009002202C
:10157000019000200290032003900520049004486D
:10158000FFF7AAF806B010BD003001402038024035
:10159000000002402DE9F84F044690F85000002763
:1015A0000A9E1D4692468B464FF0010901280ED037
:1015B000012084F85000FFF765F9804694F8510047
:1015C000616801280CD0B1F5827F07D102E00220CA
:1015D000BDE8F88FA16809B9042801D00227C2E04C
:1015E000BBF1000F27D0BAF1000F24D01DB394F83F
:1015F0005100042802D0052084F8510000206065C5
:10160000C4F838A0E587A587C4F830B0E586A5867C
:101610002064606420680168490603D4016841F0D1
:1016200040010160E068B0F5006F606805D0E8B384
:10163000012D46D07FE0012795E008B1012D39D179
:10164000206B21680088C860206B801C2063E08EBE
:10165000401EE0862EE02068816889070FD5E18E64
:1016600069B1B9F1010F0AD1216B0988C160206B02
:10167000801C2063E08E401EE0864FF00009206849
:101680008168C9070CD0E18F51B1C068A16B088097
:10169000A06B801CA063E08F401EE0874FF0010923
:1016A000FFF7F0F8A0EB0800B04200E009E001D33A
:1016B000701C50D1E08E0028CDD1E08F0028CAD117
:1016C0003FE0206B216800780873206B401C20638A
:1016D000E08E401EE0862EE02068816889070FD5E5
:1016E000E18E69B1B9F1010F0AD1216B097801735B
:1016F000206B401C2063E08E401EE0864FF0000906
:1017000020688168C9070CD0E18F51B1C068A16B16
:101710000870A06B401CA063E08F401EE0874FF074
:101720000109FFF7AFF8A0EB0800B04202D3701C2C
:1017300001D010E07EB1E08E0028CDD1E08F0028EE
:10174000CAD142463146204600F036FD28B1012775
:101750002020606507E0032705E0A06818B920682D
:10176000C16880680090012084F85100002084F84E
:10177000500038462CE710B5401EB0F1807F01D3F1
:10178000012010BD4FF0E02460610F21601702F0CE
:10179000F1FA0020A06107202061002010BD70B583
:1017A00090F83820012A19D0012400F8384F02227D
:1017B000427050F8383C5A689D6822F070060A68FA
:1017C0004968324325F0800529435A6050F8382C87
:1017D0009160447000210170084670BD022070BD08
:1017E00010B5040003D094F8390010B107E00120CF
:1017F00010BD002084F83800204600F00DF80220CB
:1018000084F83900211D206801F0CCF8012084F80B
:101810003900002010BD000008B5114A01681148C8
:10182000914208D1016841F008010160006800F0B0
:101830000800009008BD0C4A9142FBD1016841F0BC
:10184000100101600068002200F0100000900121EA
:101850001B20FFF783F8BDE808401B20FFF770B896
:10186000000C01402038024000100140022180F8A5
:10187000391001688A6802F00702062A03D00A6854
:1018800042F001020A60012180F8391000207047FF
:101890000168CA6842F00102CA600068816801F00C
:1018A0000701062903D0016841F001010160002011
:1018B0007047022180F8391001680A6A41F2111359
:1018C0001A4203D10A6822F001020A60012180F85D
:1018D0003910002070470168CA6822F00102CA600E
:1018E0000068016A41F21112114203D1016821F02E
:1018F000010101600020704770B5044690F838007F
:10190000012817D0012584F83850022084F83900C6
:101910002068826822F0770222F47F4282600868A1
:10192000502830D00DDC20284DD005DC98B310288D
:101930003BD148E0022070BD302844D0402834D14B
:1019400039E0602828D0702806D0B0F5805F2CD010
:10195000B0F5005F29D10AE0CB68D1E90121206808
:1019600001F05AF82068816841F0770109E0CB68FE
:10197000D1E90121206801F04FF82068816841F425
:101980008041816011E0CA684968206801F056F81A
:101990005021206807E016E0CA684968206801F015
:1019A0005EF86021206801F041F884F83950002089
:1019B00084F8380070BDCA684968206801F03EF8B4
:1019C00040212068EFE7226801461046EBE77047A8
:1019D00070B50446006801694FF00005C9438907E6
:1019E00015D4C168C943890711D4E91E01610120DA
:1019F0002076206880698007204602D0FFF7E7FF45
:101A000004E000F078F8204600F076F825762068AB
:101A10000169C943490717D4C168C943490713D4A9
:101A20006FF004010161022020762068806910F4C3
:101A3000407F204602D0FFF7CAFF04E000F05BF8C9
:101A4000204600F059F8257620680169C943090746
:101A500016D4C168C943090712D46FF008010161A7
:101A6000042020762068C0698007204602D0FFF756
:101A7000AEFF04E000F03FF8204600F03DF8257688
:101A800020680169C943C90617D4C168C943C9069A
:101A900013D46FF010010161082020762068C0691E
:101AA00010F4407F204602D0FFF791FF04E000F0E1
:101AB00022F8204600F020F8257620680169C94305
:101AC000C90708D1C168C943C90704D1891E01618A
:101AD000204600F013F820680169C943490609D47B
:101AE000C168C943490605D46FF040010161204631
:101AF00000F016F870BD7047704700000549884235
:101B000006D105490320487002210448FEF7AFBE04
:101B1000704700005002002000000020000002403A
:101B20007047FEE7F0B500230A24302537261F460C
:101B300011E000BFB4EB107F02D905EB107C01E08F
:101B400006EB107C01F813C001EB430C00015B1C99
:101B50008CF80170DBB29342ECD3F0BD70B52A4D26
:101B60002A49286808442A49884239D2287900F04D
:101B7000F0002871902833D810F00F0FA5F1080459
:101B80000DD100110A280AD2DFE800F03A383634C5
:101B900032302E2C07051F4800E01F48206068796E
:101BA00000F0F000A0F160016871612918D2FF21F6
:101BB00001EB101102208840FEF789FB2168FEF737
:101BC000D9FA6060A87900F00E00A871801E07287D
:101BD00006D295F907000F2802DCE87A7F2811D990
:101BE000002070BD0D48D9E70D48D7E70D48D5E76F
:101BF0000D48D3E70D48D1E70D48CFE70D48CDE7B5
:101C00000D48CBE7012070BDB001002080B85EE632
:101C100081CE341D0000FA4300007A430000FA42EE
:101C200000007A42D7A326420000FA41D7A3A6417A
:101C300085EB79415C8F264185EBF9402DE9F04336
:101C400087B014216846FEF78AFA3448016841F0EB
:101C500004010160016801F004010591016841F08F
:101C600020010160016801F020010591016841F047
:101C700001010160016801F001010591016841F075
:101C8000020101600068DFF8988000F00200059012
:101C9000002212214046FEF7F0FDDFF88890002276
:101CA00040F2FF514846FEF7E8FD01225102484646
:101CB000FEF7E3FD0226012500240096CDE901543C
:101CC000694640460394FEF707FD10200327CDE93F
:101CD0000005CDE9024769464046FEF7FDFC40F2AB
:101CE000FF70CDE90005CDE9024769464846FEF799
:101CF000F3FC4FF4604000900B48CDE901066946C3
:101D00004846FEF7E9FC002211462820FEF726FE91
:101D10002820FEF715FE07B0BDE8F0831C3802400E
:101D20000000024000040240000011100B480A4964
:101D30004FF4007201604FF48271416000218160B4
:101D4000C1600161C0E90512C16101624162816245
:101D50000A21C162FFF7B0BB00300140BC01002086
:101D600010B5124986B0104A0A6047F6FF420024B7
:101D7000401E4A60C1E9024008460C61FFF730FD91
:101D800000280ED14FF48050009069460748FFF7B5
:101D9000B3FD002805D1049404A904480594FFF775
:101DA000FEFC06B010BD00000010014050020020F3
:101DB00010B500220F49104801F01EF908B1FEF7D6
:101DC0004BFC0E490C4801F0F5FA08B1FEF744FC53
:101DD0000B49094800F03AFF08B1FEF73DFC064800
:101DE00001F03EFB002803D0BDE81040FEF734BCF4
:101DF00010BD0000240000208C0200207001002093
:101E000074000020FEE770472DE9F05F044648F6B5
:101E10000F7B4FF0020A4FF480684BE1B0F844109A
:101E200011F00F062BD030F8267039047BD530F82E
:101E3000261040F68F72114041F0800120F82610E4
:101E400004EB4615D4F800C095F8340105F59475F7
:101E5000002869D028783CF8201049047ED5BCF8C9
:101E600050100AEBC000014408EB41003CF80000B0
:101E7000C0F309005FEA000971D02A89CFE0C906E2
:101E80002DD4018801EA0B0141F400410180206852
:101E900004F12805B0F850202B780AEBC3010A445E
:101EA00008EB4201405AC0F309006064E16B08444A
:101EB000E06300212046FEF79EFD94F824000028F0
:101EC000ABD0A8690028A8D194F82400216840F07C
:101ED0008000A1F84C00002084F82400EAE001888A
:101EE00004F594750A0520D5B0F850102B78062219
:101EF00002EBC3020A4408EB4201405A04F50C719C
:101F0000C0F30903EB61EA88206801F003FF216850
:101F1000088840F68F72104040F08000088020460C
:101F2000FEF781FFC6E0A1E052E0090443D5028834
:101F300040F68F710A4042F0800101802068B0F8BD
:101F400050102B78062202EBC3020A4408EB420130
:101F5000405A83059B0DEB610BD001E04FE063E03D
:101F6000EA886969206801F0D5FEE9696869084472
:101F7000686100212046FEF745FD2068B0F850104A
:101F80000144286901F20C41B0B13E281AD242083E
:101F9000C00700D0521C4FF6FF7000EA8220088074
:101FA000216808884BF68F72104080F4405048F248
:101FB0008002104308807DE0088820F4F84040F457
:101FC0000040ECE740094FF4004242EA8020E6E797
:101FD000BCF850202878062101EBC000111808EB4E
:101FE00041003CF80000C0F309005FEA000927D077
:101FF0000346EA886046696901F08CFE20E0BCF87F
:102000005020062101EBC000111808EB41003CF8FC
:102010000000C0F309005FEA000905D06A890346A1
:102020006046696901F076FE2978226832F821005D
:1020300048F68F73184048F2C003184322F8210075
:10204000E96901EB0900E861696901EB09026A616C
:10205000AB6913B12869484504D929782046FEF7B1
:10206000D1FC03E029782046FEF759FD380621D53A
:10207000226804EB461032F8261001EA0B0141F405
:10208000004122F826102168B1F8502090F828501D
:102090000AEBC5031A4408EB4202895AC1F309014D
:1020A0004164C26B0A44C263036CE9B2204653B177
:1020B000FEF781FD2068B0F8441009043FF5AEAE8C
:1020C0000020BDE8F09FFEF796FCF3E770470000A4
:1020D00038B51C49002309681B4A11F0F00F23D1C1
:1020E00018491C310C68E500184C03D5216801F42F
:1020F000C0540EE00D6845F080550D600D6805F088
:102100008055009524680D6804F4C05425F080556E
:102110000D60B4F5C05F07D1B0F5404F04D1106831
:10212000012340F004001060106820F00100184303
:102130001060106800F00100984201D0012038BD05
:10214000002038BD08380240003C024000700040CA
:1021500070B50446FEF74EFAFEF72EFA012826D196
:10216000FEF7D6F92070FEF7D3F96070FEF7D0F9CC
:10217000A070FEF7CDF9E070FEF7CAF90D4E2071A0
:102180004FF400752946304600F098FB012229469D
:102190003046FEF772FB20786178E2780844A17837
:1021A000114408442179884201D1002070BD0120EA
:1021B00070BD00000004024038B504464068B0F528
:1021C000827F04D094F85100052805D012E00092D7
:1021D0000B460022802103E000920B4600220121E1
:1021E000204600F009F828B1606D40F020006065DD
:1021F000032038BD002038BD2DE9F0411D461746AB
:102200000E460446DDF8188008E0681C06D0FEF78C
:1022100039FBA0EB0800A8420BD255B120688068BA
:1022200036EA000030D00020B842EED10020BDE8F0
:10223000F0812068416821F0E00141606068B0F5FC
:10224000827F0BD1A068B0F5004F02D0B0F5806F4F
:1022500004D12068016821F040010160A06AB0F556
:10226000005F09D12068016821F4005101602068F5
:10227000016841F400510160012084F85100002000
:1022800084F850000320D2E70120CDE7704710B555
:1022900020B1002000F0BCF9012003E0012000F093
:1022A000B7F90020BDE8104000F07EBA4FF40051AD
:1022B0000148FEF7D7BA0000000402400E4800B5FE
:1022C000016887B041F0020101600068694600F0D2
:1022D000020005904FF40050009008480190022041
:1022E000029003900648FEF7F7F9002211462820D5
:1022F000FEF734FB07B000BD1C380240000011108F
:10230000000402402820FEF71BBB00000C4800B56B
:10231000016887B041F0020101600068694600F081
:10232000020005904FF48040009006480190022082
:10233000029003900448FEF7CFF907B000BD0000FB
:102340001C38024000001110000402400C4800B587
:10235000016887B041F0020101600068694600F041
:10236000020005904FF400400090064801900220C2
:10237000029003900448FEF7AFF907B000BD0000DB
:102380001C3802400000111000040240FEB5244831
:102390002449254A00680144914201D30120FEBD31
:1023A000FDF79EFF0022214BFDF722FFFDF7A5FF61
:1023B000044600208DF800008DF804008DF8080018
:1023C00000F0C0F9C4F307410E46062000F044FABD
:1023D000C4F307210D46072000F03EFAE1B20820C1
:1023E00000F03AFA6946062000F036F901A9072004
:1023F00000F032F902A9082000F02EF99DF8000043
:10240000B04208D19DF80400A84204D19DF80810FC
:10241000E0B2884201D00220FEBD0020FEBD0000D7
:10242000B001002080B85EE681CE341D80844E402D
:1024300010B5FFF743FFFFF769FFFFF787FF00F0D5
:1024400049F9012000F0C0F8002000F0ADF9BDE826
:102450001040002000F0DCB87CB5FFF77FFB10B324
:10246000FFF7E6FF00F026F900F046F90021012011
:1024700000F0F2F98021012000F0EEF98121012025
:1024800000F0EAF900258DF800509121242000F099
:10249000E3F96946242000F0DFF89DF80000912858
:1024A00003D002207CBD01207CBD4021412000F0F2
:1024B000D3F923210C2000F0CFF9FFF767FF00F0DC
:1024C00055F806210A2000F0C7F93B210B2000F047
:1024D000C3F9214C2220E17A00F0BEF92179A079DC
:1024E0000143A07A012801D0012000E0002001432F
:1024F0001D2000F0B1F9607A6179012808D0002030
:1025000001431E2000F0A8F96079602802D013E092
:102510000420F5E78DF8045001A9312000F09CF863
:102520009DF8040000F0F8013120491D00F094F9F5
:102530000C21372000F090F9074808384068B0F1C6
:10254000834F01DD082000E0002040F00401262038
:1025500000F082F900207CBDB0010020024610216D
:102560000148FEF78AB900000000024038B5154C5A
:1025700094F907000F2801DD012038BD00F0E2F8D2
:10258000E07940F0F001092000F066F900208DF8B4
:1025900000006946092000F05FF894F907009DF8F3
:1025A000001040F0F000884201D0022038BD207AAF
:1025B000012805D084214D2000F04EF9002038BDBF
:1025C0008721F8E7B001002070B50F49044686B0B6
:1025D000086840F00200086008688D1400F00200EE
:1025E00005900120CDE9005002900220074E039093
:1025F00069463046FEF770F8224629463046FEF717
:102600003CF906B070BD00001C38024000040240D6
:1026100070B50F49044686B0086840F004000860B1
:10262000086840F2014500F0040005900120CDE962
:10263000005002900220074E039069463046FEF794
:102640004BF8224629463046FEF717F906B070BD12
:102650001C380240000402400122AFF3008070B534
:10266000044615460E460020FFF778FF04F07F0071
:1026700000F010F8002405E0002000F00BF83055C1
:10268000641CE4B2AC42F7D3BDE870400120FFF710
:1026900065BF000001B582B04FF47A70009001234D
:1026A00001AA02A90248FEF775FF9DF804000EBDBD
:1026B000BC01002010B50020FFF786FF0220FDF7C7
:1026C000CDFF0120FFF780FFBDE810400F20FDF790
:1026D000C5BF000000B585B010200090012001901A
:1026E000002002900320039069460248FDF7F4FFA2
:1026F00005B000BD0000024010B5114C0F484FF46A
:10270000007120604FF4827060600020A060E06083
:102710002061C4E90501E06120626062A0620A20D4
:10272000E0622046FEF7C8FE08B1FDF795FF20687D
:10273000016841F04001016010BD0000003001401F
:10274000BC0100208121012000F086B810B5812154
:10275000012000F081F80021202000F07DF80A21FE
:10276000212000F079F80F48C17A222000F074F897
:102770000020FFF78CFD00210D2000F06DF8FF21F7
:10278000122000F069F8BF21112000F065F8002147
:10279000402000F061F88521BDE81040012000F0E4
:1027A0005BB80000B001002030B50F49044687B087
:1027B000086840F00200086008680C4D00F0020054
:1027C00005900620009001200190029002200390C5
:1027D00069462846FDF780FF224606212846FEF777
:1027E0004CF807B030BD00001C3802400004024025
:1027F00070B505468121012000F02EF8002120202F
:1028000000F02AF80A21212000F026F8114C22209D
:10281000E17A00F021F80120FFF739FD80210D2039
:1028200000F01AF8E27A2946002000F01BF8FF2198
:10283000122000F011F8F721112000F00DF84021CE
:10284000084600F009F8BDE870408321012000F03F
:1028500003B80000B001002013B5012201A900F067
:1028600001F81CBD70B5044615460E460020FFF762
:1028700075FE44F08000FFF70DFF002404E0305D9A
:10288000FFF708FF641CE4B2AC42F8D3BDE8704027
:102890000120FFF763BE30B585B00C460546142114
:1028A0006846FDF75CFC0020CDE900400120029065
:1028B00069462846FDF710FF05B030BD30B585B03C
:1028C0000C46054614216846FDF749FC0120CDE978
:1028D00000400320039069462846FDF7FDFE05B041
:1028E00030BDFDF7D5BF000000B593B03421684678
:1028F000FDF735FC14210DA8FDF731FC11480168E6
:1029000021F4C05141F40061016001200090019068
:1029100002200990C0030A9000010B90C0000C90A7
:102920006846FEF7B5FB0F200D9003200E900020A7
:102930000F901090119001210DA8FEF7A7FA13B087
:1029400000BD0000007000400F48016841F4807134
:1029500001600D4908310A680C4B1A400A60026890
:102960000B4B1A400260026822F480220260086861
:1029700020F47D0008600020091D086005494FF023
:102980000060086070470000003802400CC0FF88FB
:10299000FEFFFEEE08ED00E00148FFF719B8000069
:1029A0005002002070B502684FF08046154B164C5F
:1029B000B04203D0984201D0A04205D122F0700568
:1029C0004A682A43B0420CD098420AD0A04208D0AC
:1029D0000E4B984205D00E4B984202D00D4B9842B8
:1029E00003D122F44073CA681A430B6922F08002B3
:1029F0001A4302608A68C2620968816201214161EA
:102A000070BD0000000400400008004000080140C4
:102A1000000C01400010014010B5846842EA032216
:102A200024F47F440A432243826010BD826822F06E
:102A300070020A4342F007018160704710B5036AD3
:102A4000046A24F001040462846924F0F00444EA76
:102A5000021423F00A020A438461026210BD10B519
:102A6000036A23F0100303628369046A23F470434A
:102A700043EA023224F0A00343EA011182610162B9
:102A800010BD2DE9F041D0F89832D0F89022CAB1AB
:102A900001EB810400EB84040025E6693EB103EB01
:102AA00041139B6BB6FBF3F703FB176323B1C2F82B
:102AB00014520020BDE8F08100231A46E56100F0C1
:102AC0005CFCF6E70220F5E770B50546D0F89042C9
:102AD00000F05DFBC4F80C02D5F8900248B1D5F8BF
:102AE0009412D4F80402CA6804F5037190470020D8
:102AF00070BD022070BD70B504460026812100F033
:102B000099FA002501212046E56200F093FA82211E
:102B10002046C4F8585100F08DFA2564D4F890028C
:102B200048B1D4F8940204F52474406880472068C2
:102B300000F0F3FD2560304670BD10B5D0E9A4412A
:102B400059B194F80002FF2807D08B6894F801224D
:102B500021469847FF2084F80002002010BD0000A5
:102B60000A2101800048704798000020432101801D
:102B700000487047E800002043210180004870476A
:102B8000A400002043210180004870472C01002050
:102B90002DE9F04104460026007C4FF40077012522
:102BA00090B3402302228121204600F043FB4023C2
:102BB000E56202220121204600F03CFB08230322AB
:102BC00082212046C4F8585100F034FB4FF40770BE
:102BD000256400F0A3FDC4F89002F8B10546D4F8CE
:102BE0009402006880470020C5F81402C5F8180256
:102BF000207CD5F8042298B140230121204600F022
:102C000025FB3046BDE8F081FFE73B4602228121EB
:102C1000204600F00FFB3B46E562CAE70126F0E7DD
:102C20003B46EAE710B5D0F8901269B1027C002A61
:102C3000D1F8042205D04023012100F007FB002039
:102C400010BD4FF40073F7E7022010BD02460220CA
:102C5000002902D00020C2F894127047D0F89002E8
:102C6000C0F8041200207047D0F89002C0F810227B
:102C7000C0F80812002070472DE9FC410546D0F845
:102C8000907200208DF80000ADF804000646087828
:102C90000C4610F0600121D020293BD1E288AAB176
:102CA0000006607807D5D5F894128B6839469847A6
:102CB000E288394626E087F80002A07987F8010209
:102CC000E2883946284600F04FF828E0D5F89412FB
:102CD000607800228B682146984720E0607820B118
:102CE0000A2809D00B2815D110E095F874020328A2
:102CF00010D1022201A905E095F87402032809D138
:102D000001226946284600F049F808E095F8740267
:102D1000032804D02146284600F01BF8022630463E
:102D2000BDE8FC8110B5D0F88C2252689047002095
:102D300010BD134610B50A46002100F087FA0020A6
:102D400010BD134610B50A46002100F016FB002006
:102D500010BD10B50446802100F0F4FA2046BDE80D
:102D60001040002100F0EEBA10B50323C0F848214E
:102D7000C0F86C32C0F84C2113460A46002100F01E
:102D800065FA002010BD10B505210023C0F86C12B3
:102D90001A46194600F05AFA002010BD10B5022359
:102DA000C261C0F86C32026213460A46002100F08C
:102DB000E4FA002010BD10B504210023C0F86C1205
:102DC0001A46194600F0D9FA002010BD10B50A467F
:102DD000024903A000F0E0F8004810BD28050020DB
:102DE00043444320436F6E666967000012200880E9
:102DF000004870474400002010B50A46024903A06D
:102E000000F0CAF8004810BD2805002043444320C4
:102E1000496E746572666163650000000420088075
:102E2000004870474000002010B50A46024903A040
:102E300000F0B2F8004810BD2805002053544D6939
:102E400063726F656C656374726F6E6963730000A3
:102E500010B50A46024903A000F09EF8004810BDD4
:102E60002805002053544D33322056697274756121
:102E70006C20436F6D506F727400000010B51A2003
:102E800008800948D0E91414806D081809D0082278
:102E90000649FEF747FE0549042210312046FEF799
:102EA00041FE0248801E10BD0000F81F5A0000209D
:102EB000F8B5044648880D46010A08294BD2DFE8D8
:102EC00001F04A0409174A4A4048D4F88812207C85
:102ED0000A6832E0207C02260028D4F88C0205D053
:102EE000C16A684688470146467041E0816AF8E752
:102EF000C0B206282FD2DFE800F003080D12171C1D
:102F0000D4F88812207C4A6817E0D4F88812207C14
:102F10008A6812E0D4F88812207CCA680DE0D4F8E0
:102F20008812207C0A6908E0D4F88812207C4A695B
:102F300003E0D4F88812207C8A69694690470146EC
:102F400016E0207C38B9D4F88C02416B684688477B
:102F5000F5E7207C20B129462046FFF7FAFEF8BDB0
:102F6000D4F88C02016B68468847014607204870F8
:102F7000BDF8000048B1EA8852B1824200D9024649
:102F8000ADF800202046FFF709FFE8880028E6D1C9
:102F90002046FFF710FFF8BD70B5002300281ED0B3
:102FA0000446002502E06D1CEDB2641C2678002E5C
:102FB000F9D1022404EB450414801278CA545B1C36
:102FC0000322CA5400245B1C06E0CA545B1CDAB21C
:102FD0008C54521CD3B2401C0278002AF5D170BD2B
:102FE00001004FF0000004D0012901D0022901D0D6
:102FF000022070470120704710B580B1D0F88C32A4
:1030000013B10023C0F88C3209B1C0F88812012135
:1030100080F87412027000F0BFF8002010BD02208A
:1030200010BD10B5D0F89802FDF718FDBDE81040AE
:10303000FFF7D6BF10B5D0F89802FDF7EBFCBDE85E
:103040001040FFF7CDBF2DE9F0411746044651B1BE
:10305000D4F88C0242691AB194F87402032851D052
:103060000220BDE8F081D4F86C32002504F1140090
:10307000022B03D0042B3AD0C3B33CE0D0E9036366
:103080009E4207D9F11AC1608AB239462046FFF73D
:1030900058FE12E08068B0FBF3F103FB110199B90F
:1030A000984211D3D4F8701288420DD200221146F2
:1030B0002046FFF746FEC4F8705200231A46194610
:1030C000204600F0C3F816E0D4F88C02C16829B19C
:1030D00094F87402032801D12046884780212046B5
:1030E00000F030F92046FFF74EFE04E0FFE78021B4
:1030F000204600F027F994F87802012804D184F8DA
:10310000785201E0204690470020AAE770B51546A6
:10311000044649B1D4F88C0282691AB194F8740259
:10312000032830D0022070BDD4F86C1204F5A070D2
:10313000032902D005291ED027E0D0E903218A42C5
:103140000BD9531AC3600846834200D303469AB290
:1031500029462046FFF7EDFD17E0D4F88C020169FF
:1031600029B194F87402032801D1204688472046EB
:10317000FFF721FE09E000200146C4F86C0220465A
:1031800000F0E0F801E020469047002070BDD0F844
:103190009802FDF78FBC000010B504461C481D497D
:1031A000C0F86842C4F89802016008214160022119
:1031B00081600161002181610162FDF797FD08B125
:1031C000FDF74AFA0022D4F898021823114604F5B4
:1031D0002674FDF7F5FB5823002280212068FDF7B7
:1031E000EFFBC023002281212068FDF7E9FB4FF4AB
:1031F0008873002201212068FDF7E2FB4FF4807301
:10320000002282212068FDF7DBFB002010BD0000BA
:1032100018110020005C00400A06D0F8980201F066
:103220007F0100EB411002D590F82A00704790F81A
:103230002A01704710B51C461346D0F89802224662
:10324000FDF73FFCBDE81040FFF7CABE10B5D0F84F
:103250009802FDF764FCBDE81040FFF7C1BE70B5F1
:103260000022044640231146FFF7E4FF40260125D3
:10327000C4F850613346002280212046C4F84451EE
:10328000FFF7D8FF6662A56184F874520020C4F885
:103290006C026060C4F87C02D4F8900228B1D4F8C3
:1032A0008C020021426820469047002070BD90F8B3
:1032B000751280F874120020704710B590F87412DF
:1032C000032904D1D0F88C12C96901B188470020C4
:1032D00010BD01740020704710B5D0F89802FDF7BA
:1032E0008EFDBDE81040FFF77BBE70B5044600F5CB
:1032F0002070054600F04AF80120C4F86C02B4F8CA
:103300008602C4F8700294F8800210F01F010AD0FF
:1033100001290DD0022910D000F08001204600F0D4
:1033200011F8002070BD2946204600F09EF8F8E70D
:103330002946204600F0CAF9F3E72946204600F066
:103340001DF9EEE710B5D0F89802FDF7FFFBBDE8D8
:103350001040FFF745BE10B5D0F89802FDF76AFDA2
:10336000BDE81040FFF73CBE90F8741280F875126B
:10337000042180F874120020704710B5D0F898022C
:10338000FDF719FCBDE81040FFF72ABE0A7802706D
:103390004A7842708A78CB7802EB032242800A791D
:1033A0004B7902EB032282808A79C97902EB0121F1
:1033B000C18070470246002011B1C2F88C127047DC
:1033C0000220704710B5D0F88C2202241AB112687E
:1033D000904700B90024204610BD000070B50E468D
:1033E0001E4D897804462970012931D894F8740259
:1033F00002280BD003280FD031462046FFF7A9FC46
:1034000029782046BDE87040FFF78CBCD9B1032075
:10341000616084F8740209E071B16068884212D07A
:10342000C1B22046FFF77EFC297861602046FFF795
:10343000C9FF02280CD006E0022084F8740220465E
:103440006160FFF76FFC2046BDE87040FFF7B3BC3A
:1034500031462046BDE87040FFF77BBC9400002059
:1034600010B5FFF778FF002010BD2DE9F0410A7874
:10347000002612F0600208D0202A01D0402A70D124
:10348000D0F88C22926890476DE04B78002201259D
:103490000A2B66D2DFE803F0405D655765080565D5
:1034A0002C29FFF705FD5EE004468888D8B9C88856
:1034B000C8B94888802816D200F07F0794F87402B3
:1034C000032810D084F8767239462046FFF704FFAF
:1034D0002046FFF770FC1FB1022084F8740242E01E
:1034E00084F874523FE020463BE0FFF777FF3AE074
:1034F000CB88012B35D190F87432012B04D0022BEC
:1035000002D0032B2DD104E08260012200F10801DA
:1035100016E00122011D13E090F87422012A03D065
:10352000022A01D0032A1CD1CA88022A19D1C560F7
:10353000D0F87C1209B10321C160022200F10C0114
:10354000FFF72CFC0FE0498801290CD1C0F87C5210
:1035500011E090F87432012B08D0022B06D0032B17
:1035600004D0FFF7F6FB3046BDE8F0814988012919
:10357000F9D1C0F87C22FFF71EFCF4E72DE9F041F9
:103580000A46044610780027097910F060030AD033
:10359000202B01D0402B50D1D4F88C0211468368E7
:1035A000204698478FE0C0F34110012806D050789C
:1035B000D0B301282AD003283FD107E0D4F88C02E9
:1035C000114683682046BDE8F041184794F874021C
:1035D000022802D0032872D10AE071B380296ED08C
:1035E0002046FFF7AFFE80212046FFF7ABFE6AE0E2
:1035F000508838B931B1802904D0D08810B920461C
:10360000FFF7A0FE2046FFF7D6FB5CE094F87402BB
:103610000228E2D0032852D1508898BB4806F1D046
:103620002046FFF7FEFCEDE7FFE794F87402002662
:10363000022803D0032842D112E040E009B18029DA
:103640003DD1080601F07F0000EB800004EB800113
:1036500001D5143101E001F5A07102220E602AE0CB
:10366000080601F00F0000EB800004EB80000AD593
:10367000806920B301F07F0000EB800004EB80053F
:1036800014350BE01FE0D0F84401C0B101F07F0019
:1036900000EB800004EB800505F5A07541B18029A1
:1036A00006D02046FFF7B8FD10B10120286000E0E9
:1036B0002E60022229462046FFF770FB03E01146E8
:1036C0002046FFF746FB3846BDE8F08170B5054659
:1036D00008780C4610F0600003D0202801D0402864
:1036E00016D195F87402012803D0022801D00328CE
:1036F0000ED1207901280BD8D5F88C028268284693
:103700009047E188014306D12846FFF754FB02E0C9
:103710002846FFF71EFB002070BD70470048704729
:10372000F80E00202DE9F0470C784FF0000C30F82F
:10373000243048F68F121340CA78002A7ED0012A1E
:103740007DD0022A03D0032A7AD04FF0010C48F230
:103750008002134320F824300D7830F8254048F6D5
:103760008F731C402C43144320F825400F7B48F6F0
:10377000BF744BF68F7948F2C0054CF28006EFB368
:1037800091F80080C24630F8287048F280181F4037
:1037900047EA080720F82A70B0F8507091F80080C6
:1037A000074407EB0817B1F8088028F00108A7F8CC
:1037B0000084B0F8507091F80080074407EB0817B8
:1037C000B1F80A8028F00108A7F808844F78002F84
:1037D0007ED091F8008030F828707F0405D530F84D
:1037E00028701F40374320F8287091F8008030F887
:1037F00028707F0607D530F8287000E02FE01F40C2
:103800002F4320F828700F7830F827501D4035439B
:1038100020F82750CB780D78012B30F8253003EABB
:10382000040301D083F02003134320F825300B78E4
:1038300030F8231001EA0901114302E006E00BE031
:1038400007E020F823106046BDE8F08743F40073DA
:103850007DE743F4C0637AE743F4806377E74F780A
:1038600027B3B0F850600F78064406EB0716CF88F0
:1038700027F00107A6F800740F7830F82760760665
:1038800005D530F827601E402E4320F82760CB78FE
:10389000012B06D00B7830F82310214081F0200155
:1038A000CAE70B7830F823102140C5E7B0F8504044
:1038B0000D78044404EB0514CD8825F00105A4F827
:1038C0000854B0F850400D78044404EB051400E0AF
:1038D0002DE00D6904F20C44EDB13E2D21D26F08AC
:1038E000ED0700D07F1C4FF6FF7505EA8725258080
:1038F0000D7830F82540640405D530F825401C408B
:10390000344320F825400B7830F8231001EA0901F0
:1039100081F4405190E7258825F4F84545F40045A9
:10392000E5E76D094FF4004747EA8525DFE70F78A3
:1039300030F827805FEA484807D530F8278008EA42
:10394000030848EA060820F827800F7830F8276037
:10395000760605D530F827601E402E4320F82760F4
:103960000F7830F827601E402E4320F827600D782E
:1039700030F8253003EA090383F44053134320F859
:1039800025308EE72DE9F04391F80C804F780A78C6
:1039900048F6BF7C4BF68F7948F2800348F2C005A9
:1039A0004CF2800648F68F74B8F1000F28D0002F33
:1039B00030F822704FEA474748D0002F05DA30F838
:1039C00022702740374320F822700A7830F822709E
:1039D0007F0605D530F8227027402F4320F822704B
:1039E0000D7830F825202240324320F825200C782D
:1039F00030F8242002EA0C021A4320F824201AE0AE
:103A00007FB130F82260760605D530F82260264076
:103A10002E4320F822600A7830F8221001EA0C01C7
:103A20000EE030F822506D0405D530F822502540C4
:103A3000354320F822500A7830F8221001EA0901B3
:103A4000194320F822100020BDE8F083002F05DA8A
:103A500030F822702740374320F822700A7830F877
:103A60002260760605D530F8226026402E4320F8E5
:103A700022600E7830F8262022402A4320F82620A3
:103A80000C7830F8242002EA09021A4320F8242096
:103A9000C1E70020704700B50121A0F840100021C7
:103AA000A0F84010A0F84410A0F8501000F021F940
:103AB000002000BD30F8401F21F43F41018000206C
:103AC00070470020704730B50A7BB2BB4A7848F691
:103AD0008F7548F28004C2B10B7830F8232052066B
:103AE00007D530F823202A4048F2C0052A4320F8A1
:103AF0002320CA78012A20D00A7830F8221048F60C
:103B0000BF73194081F0200114E00A7830F82230A8
:103B10005B0407D530F822302B404CF280052B4354
:103B200020F822300A7830F822104BF68F731940B3
:103B300081F44051214320F82210002030BD10B5FF
:103B40004A780978002A48F2800330F8212005D00D
:103B500048F6BF74224082F0100204E04BF68F74E6
:103B6000224082F480521A4320F82120002010BD08
:103B7000F0B50E46054691F801C00022097B346974
:103B8000B06948F28007BCF1010F04D0A0424FD9C0
:103B9000001BB0614EE0A04202D9001BB06101E001
:103BA0000446B26169B1307835F820104906B5F89D
:103BB0005010294401EB001012D5A0F80C44728972
:103BC00011E0A3B2F2882846716900F0BFF8B5F899
:103BD00050003178284400EB0110A0F804441EE0A6
:103BE000A0F804443289A3B22846716900F0AEF807
:103BF000707848F68F7110B1012807D00FE0327845
:103C000035F82200084048F2C00105E0327835F866
:103C1000220008404CF28001084325F82200317848
:103C200035F8210048F6BF72104080F030005BE0AC
:103C30000446B2614FF6FF724FF4004319B1BCF174
:103C4000000F19D02BE0B5F850003178284400EB74
:103C5000011000F20C402CB13E2C30D3610943EA34
:103C6000812107E0018821F4F84141F4004101E09D
:103C700002EA812101802FE0B5F850003178284414
:103C800000EB011000F204407CB13E2C13D261081D
:103C90005FEAC47C00D0491C02EA8121018070786F
:103CA0000028D0D001280FD016E0018821F4F84177
:103CB00041F40041F2E7610943EA8121EEE761083E
:103CC000E307D5D0491CD3E7B5F85010481931782F
:103CD00000EB0110A0F80C44317835F821004BF6C8
:103CE0008F72104080F44050384325F821000020A6
:103CF000F0BD30F8401F41F43F4101800020704783
:103D00000148FCF76DBF000018110020B0F8440016
:103D10007047000010B500EB42005C0800F58060C1
:103D200009D000BF30F8042B01F8012B120A01F86A
:103D3000012B641EF6D1DA0701D00078087010BD9F
:103D400011B98021A0F84C100020704710B55B1C01
:103D500000EB42005B0800F5806009D011F8012BF0
:103D60005B1E11F8014B42EA042220F8042BF5D126
:103D700010BDFEE70907090E002804DB00F1E02072
:103D800080F80014704700F00F0000F1E02080F888
:103D9000141D704702E008C8121F08C1002AFAD19A
:103DA00070477047002001E001C1121F002AFBD1BB
:103DB0007047000010B504460748FDF757FD064858
:103DC0000021026851620068416AA142FCD3BDE84B
:103DD00010400148FDF76DBD140200201FB5FCF72F
:103DE0005FFDFEF781FDFDF729FFFDF79FFF002531
:103DF000454800950195029542490395016047F6B3
:103E0000FF41C0E901154FF47A71C0E90315802123
:103E10004161FDF7E5FC4FF4805469463A4800944F
:103E2000FDF76AFDFDF7C4FF374800953C38019562
:103E300002953649039501601F21C0E901154FF62F
:103E4000FE71C0E903154561FDF7CAFC2E486946BD
:103E50003C380094FDF750FD2D484FF00408012731
:103E600001682C480160702101719021417180F836
:103E700006800F21C1710772477287720821C172D3
:103E8000FEF7EAFA0028FBD11F48FDF724FD4FF4A6
:103E9000FA60FDF765FF1C48FDF7FAFC1C4E093E71
:103EA000F41F60780128FCD00228FAD00328F8D14A
:103EB0003220FCF7D3FBC4F807501548C4F80B5068
:103EC00037700E38FEF744F958B911480E380178AA
:103ED00071704178B1708178F170C078307120785C
:103EE0007071207863280AD0401C2070FCF7A0FB7A
:103EF00007480938FEF77CFC84F80180D1E725707B
:103F0000F4E700000010014050020020000C0140C6
:103F100010000020B0010020030406080C10182037
:103F20003000000000000000000102030406070842
:103F300009000000543F000800000020BC01000000
:103F4000B604000844400008BC010020CC15000065
:103F5000A43D0008F201100D80D60F1C40FF7A1D11
:103F600080FB651E100AA1BC33C0CA8936ED2D1432
:103F7000081D2E1B0829041A51041A7D041ACD1499
:103F80001AF904170403090412011402020216406C
:103F9000830440571D0201020355031A1A03137DBF
:103FA000051B0879041A75041AA104321069885493
:103FB00068FF1F130A0632022A40181C09024357E1
:103FC000111DC0320904291A020B13052416100111
:103FD0000524011009010424020205240617010723
:103FE000058203081C1009048D320A1D0705010211
:103FF000432C070581070938442A40072A81071105
:104000002B0907440A3B044413912B1408F72A1484
:1040100008792C42081A3B101A83101AC904C11AD5
:1040200079181A6D041A85041A610421001300FA24
:10403000436F12833F80A1031C9080020F01010196
:04404000400000003C
:04000005080000F5FA
:00000001FF
