:020000040800F2
:100000000805002009010008FB1F0008CF170008A1
:10001000F91F000893040008AB2A00080000000044
:100020000000000000000000000000009D2100080A
:10003000A104000800000000FD1F00080D290008B1
:100040002301000823010008230100082301000800
:1000500023010008230100082301000823010008F0
:1000600023010008230100082301000823010008E0
:1000700023010008230100082301000823010008D0
:1000800023010008230100082301000823010008C0
:10009000230100082301000823010008D9040008F7
:1000A000000000002301000823010008C129000806
:1000B0002301000823010008230100082301000890
:1000C0002301000823010008230100082301000880
:1000D0002301000823010008230100082301000870
:1000E000A3040008230100082301000823010008DD
:1000F00023010008DFF80CD000F0AAF900480047FF
:10010000ED2A0008080500200648804706480047F9
:10011000FEE7FEE7FEE7FEE7FEE7FEE7FEE7FEE7B7
:10012000FEE7FEE771290008F5000008D2B201E001
:1001300000F8012B491EFBD270470022F6E710B5EC
:1001400013460A4604461946FFF7F0FF204610BD45
:1001500030B480EA010202F0004530F0004221F0A4
:10016000004013D090B1C30DD40DC2F31601C0F3FB
:100170001600E41A41F4000140F400027D3491427B
:1001800001D3641C00E04900002C02DA30BC0020DE
:1001900070474FF400000023914201D3891A0343B2
:1001A00040084FEA4101F7D151B1914202D14FF0DD
:1001B000004105E002D24FF0010101E06FF00101C2
:1001C00003EBC450284430BC00F0AEB82DE9F04D2C
:1001D00081EA030404F0004B21F0004514464FF07F
:1001E000000A23F0004150EA050220D054EA01023F
:1001F0001DD0C5F30A570246C5F31303C1F313001C
:10020000C1F30A5640F4801543F48013A7EB0608A7
:10021000101BD64608F2FD3873EB050002D308F137
:10022000010801E092185B41B8F1000F03DA0020E9
:100230000146BDE8F08D00204FF48011064684464B
:100240000EE0171B73EB050705D3121B63EB0503C9
:1002500006434CEA010C49084FEA300092185B4112
:1002600050EA0107EDD152EA030012D082EA0400FD
:1002700083EA0501084305D0101BAB4106D20122D9
:10028000002306E000224FF0004302E06FF001027D
:1002900053101AEB06004CEB085110EB0A0041EB2F
:1002A0000B01BDE8F04D00F076B8C10F80EAE070B8
:1002B0000844CA079623002100F03FB80EB540F26B
:1002C000334102910021CDE900110A460B4600F0AE
:1002D00071F803B000BDC1F30A5210B5C1F31301A8
:1002E00040F2FF3341F480119A4201DA002010BD40
:1002F00040F233439A42A2F2334203DC524200F00E
:1003000003F810BD904010BD202A04DB203A21FAEA
:1003100002F00021704721FA02F3D040C2F120021E
:1003200091400843194670470029A8BF7047401CF8
:10033000490008BF20F00100704710B4B0FA80FCFB
:1003400000FA0CF050EA010404BF10BC704749B138
:10035000CCF1200421FA04F411FA0CF118BF0121A8
:1003600021430843A3EB0C01CB1D4FEA00614FEA88
:10037000102042BF002010BC704700EBC350104457
:100380000029A4BF10BC7047401C490008BF20F0E2
:10039000010010BC704710B5141E73F1000408DA98
:1003A000401C41F1000192185B411A4301D120F039
:1003B000010010BD2DE9F04D92469B4611B1B1FAF6
:1003C00081F202E0B0FA80F22032904600F052F85A
:1003D00004460F4640EA0A0041EA0B0153465A46DA
:1003E000084313D0114653EA010019D0C8F1400266
:1003F0005046FFF789FF05460E465046594642468D
:1004000000F038F8084305D0012004E020463946C2
:10041000BDE8F08D0020054346EAE0762C433743E3
:100420000A986305E40AA0EB08000022FD0A44EAEA
:1004300047540A3002D500200146E9E701051019AA
:100440006941DDE9084500196941BDE8F04DA2E7C1
:10045000064C074D06E0E06840F0010394E8070011
:1004600098471034AC42F6D3FFF748FE1445000815
:1004700034450008202A04DB203A00FA02F100206B
:1004800070479140C2F1200320FA03F319439040D2
:100490007047FEE701F0BEBE01F0BFBE01F08EBEA8
:1004A000704710B54FF4806000F042FA4FF40060DE
:1004B00000F03EFA4FF4805000F03AFA4FF400504A
:1004C00000F036FA4FF4804000F032FABDE81040F8
:1004D0004FF4004000F02CBA10B54FF4807000F0DB
:1004E00027FABDE810404FF4007000F021BA7047C1
:1004F0002DE9FF4F83B004463E20CDE90040DDF8F2
:1005000044B000274FF080093148109A07EB0711DB
:1005100010F811301278934240D100EB410A109844
:100520009AF801104078814238D1049804990F302C
:1005300083B204F10F0082B2204601F0B3FA002624
:1005400000250AEB060800BFBBF1000F13D02149BC
:100550000598088098F8021029FA05F0014203D0A6
:100560002046049901F06EF9641C0098A4B2201A88
:10057000102826D00AE098F8021029FA05F0014266
:1005800001D0059800E0069801F00AFC6D1CEDB260
:10059000082DD9D3761CF6B2202ED1D37F1C01981A
:1005A000BFB28742B0D30C484188008807B0491ECB
:1005B000BDE8F04F401E8BB282B20021084601F028
:1005C00071BA0498009C401C80B20490E2E70000DD
:1005D000C93800083C000020E80000202DE9FF4F4A
:1005E00083B004460720CDE90040DDF844B0002781
:1005F0004FF0800907EB870000EB47113048109A55
:1006000010F811301278934240D100EB410A109853
:100610009AF801104078814238D104980499173033
:1006200083B204F1170082B2204601F03BFA0026A3
:1006300000250AEB060800BFBBF1000F13D02149CB
:100640000598088098F8021029FA05F0014203D0B5
:100650002046049901F0F6F8641C0098A4B2201A10
:10066000182826D00AE098F8021029FA05F001426D
:1006700001D0059800E0069801F092FB6D1CEDB2E8
:10068000082DD9D3761CF6B2482ED1D37F1C019801
:10069000BFB28742AED30C484188008807B0491EDC
:1006A000BDE8F04F401E8BB282B20021084601F037
:1006B000F9B90498009C401C80B20490E2E7000065
:1006C000054100083C000020E80000202DE9FF4F14
:1006D00083B004460420CDE90040DDF844B0002793
:1006E0004FF080093148109A07EB871110F811304C
:1006F0001278934240D100EB410A10989AF8011009
:100700004078814238D1049804991F3083B204F1B3
:100710001F0082B2204601F0C5F9002600250AEB31
:10072000060800BFBBF1000F13D0214905980880CF
:1007300098F8021029FA05F0014203D020460499E6
:1007400001F080F8641C0098A4B2201A202826D05A
:100750000AE098F8021029FA05F0014201D0059844
:1007600000E0069801F01CFB6D1CEDB2082DD9D3FA
:10077000761CF6B2802ED1D37F1C0198BFB287427F
:10078000B0D30C484188008807B0491EBDE8F04F3F
:10079000401E8BB282B20021084601F083B9049852
:1007A000009C401C80B20490E2E700000B4300086C
:1007B0003C000020E800002070B5044600F094F9E9
:1007C0000546601C02D004484068044400F08CF9DF
:1007D000401BA042FAD370BD2C0000202DE9F84F39
:1007E000514D4FF002094FF00108B0F5005F05D000
:1007F000B0F5804F02D0B0F5004F16D1FFF74EFE96
:10080000012812D16946122001F0B0FEFF2112200A
:1008100001F0F6FF9DF80000010702D585F8019070
:1008200003E0400601D585F80180DFF800A14FF410
:10083000807B5946504600F04DF93B4CFF2608346A
:10084000032790BB0A20FFF7B7FF5946504600F038
:1008500041F950BB84F8009029784A4671B30020D2
:10086000012931D0022934D060700329A07035D01D
:10087000E07028704FF01009CDF8009062780323E3
:100880003821182001F0D4F9CDF80090A278032384
:100890003821582001F0CCF9CDF80090E2780323FC
:1008A0003821982001F0C4F96F704FF4007B59464D
:1008B000D146504600F00EF998B11DE06670A67062
:1008C000E67085F80080D5E76070A670E0702A7049
:1008D000D0E76670A070E0702F70CBE7E670042060
:1008E000C7E70A20FFF768FF5946484600F0F2F8CC
:1008F00010B92770A6706F704FF4806A5146484651
:1009000000F0E8F800280CD10A20FFF755FF514607
:10091000484600F0DFF8002803D184F800806671B3
:100920006F70BDE8F88F000000000020000002405A
:10093000044910B50A68024202D00860FFF74EFF72
:1009400010BD0000140401402DE9F84FDFF864B138
:1009500000234FF0010C4FF0030A4FF00F090BF189
:10096000040EA0E00CFA03F6324072D04C68022C60
:1009700001D0122C0ED1DC0800EB8408D8F82040FE
:100980005D07EF0E09FA07F5AC430D69BD4025433D
:10099000C8F8205007685D0091F804800AFA05F451
:1009A00008F00308A74308FA05F848EA0708C0F862
:1009B00000804F68012F05D0022F03D0112F01D0E6
:1009C000122F11D18768D1F80C80A74308FA05F8D7
:1009D00048EA0708C0F808804768B7430E79C6F3AD
:1009E00000169E403E434660C668A6438C68AC40F5
:1009F0003443C4604C68E40054D52F4C256845F05E
:100A000001052560246823F0030504F00104009427
:100A10002A4C2544AF689C07240F09FA04F6B74313
:100A2000274EB04201D1002615E0264EB04201D13A
:100A3000012610E0244EB04201D102260BE0234EE5
:100A4000B04201D1032606E0214EB04202D1042675
:100A500001E027E00526A6403E43AE60DBF80040FB
:100A60005D464E689443F60300D514432C60DEF8CF
:100A7000004075464E689443B60300D514432C607D
:100A80000C4D08352C684E689443F60200D514438B
:100A90002C60084D0C352C684E689443B60200D586
:100AA00014432C605B1C0A6832FA03F47FF45AAFDB
:100AB000BDE8F88F000401402038024000000140EA
:100AC000000002400004024000080240000C024006
:100AD000001002400069084000D0012070470AB1B0
:100AE000816170470904FBE7014880687047000096
:100AF0002C000020024881684268114481607047E0
:100B00002C00002010B50024032000F089F80020FC
:100B100000F008F808B1012401E000F025F82046B3
:100B200010BD000070B50E4E05460024706898B1E7
:100B30004FF47A71B1FBF0F00A490968B1FBF0F0AB
:100B400000F0F5FC40B9102D06D200222946501EB7
:100B500000F046F8356000E00124204670BD00003A
:100B60002C000020380000200D4808B5016841F035
:100B700000410160016801F000410091011F0A6815
:100B800042F001020A60096801F001010091016868
:100B900041F080510160006800F08050009008BD75
:100BA0002438024000280DDB00F01F020121914093
:100BB0004009800000F1E020C0F88011BFF34F8FA2
:100BC000BFF36F8F7047002809DB00F01F0201217F
:100BD00091404009800000F1E020C0F8001170470A
:100BE000F0B40E4B1B680C46C3F30223C3F1070598
:100BF000042D00D90425191D072901D2002300E086
:100C0000DB1E012606FA05F1491E214099409E404F
:100C1000761E16403143F0BC01F048BF0CED00E0F9
:100C2000064900F0070208684FF6FF03184040EA43
:100C30000220034A10430860704700000CED00E0FA
:100C40000000FA052DE9F0470E46050079D0DFF8DF
:100C50008481D8F8000000F00100B04214D2012EC7
:100C600005D1D8F8001041F00401C8F80010D8F8F8
:100C7000001021F001013143C8F80010D8F800003D
:100C800000F00100B0425CD12878534C800705D5B4
:100C90002068A96820F0F000084320602878C00789
:100CA0005CD04D496868083902281AD003281BD047
:100CB000096801281BD08905002966DA216821F01E
:100CC000030101432160FFF70FFF6968074641F206
:100CD0008830022914D0032920D0012981462AD046
:100CE00038E009688903E7E709688901E4E78907CB
:100CF000E2E700BFFFF7F8FEC11B494501D926E036
:100D000081462068C0F381000228F3D126E000BFAD
:100D1000FFF7EAFEC11B494501D918E0814620686A
:100D2000C0F381000328F3D118E000BFFFF7DCFE19
:100D3000C11B49450BD82068C0F381000128F5D1BB
:100D40000CE022E0FFF7D0FEC11B494502D9032089
:100D5000BDE8F087206810F00C0FF3D1D8F8001030
:100D6000404601F00101B14211D9012E03D10168C1
:100D700041F004010160016821F00101314301608B
:100D8000006800F00100B04201D00120E0E72878BF
:100D9000400705D52068E96820F4E060084320603A
:100DA0002878000706D52068296920F4605040EAB9
:100DB000C100206000F018F82168084AC1F303114F
:100DC000515CC8400649086006480068BDE8F04725
:100DD000FFF7A8BE003C024008380240552E00082C
:100DE000380000202C000020134A116801F00C008C
:100DF00004280CD008280CD00C280CD0101F006838
:100E0000C0F342314FF40040491C884070470B4802
:100E100070470B4870470B48C1F383431268C05CAE
:100E2000C1F38151491CD20301D5054A00E0034AB0
:100E30005043B0FBF1F07047083802400024F40042
:100E400000127A004C2E00082DE9F84F04007DD0E6
:100E5000FC480168006801F00C0700F48036207837
:100E6000F94DC00741D0082F12D00C2F02D1B6F592
:100E7000803F0DD06068012811D008B1052818D036
:100E8000286820F480302860286820F4802009E059
:100E90002868800329D560680028D8D025E0286814
:100EA00040F480302860606890B1FFF71DFE8046F6
:100EB0000AE0286840F480202860F0E7FFF714FE7D
:100EC000A0EB080064287BD828688003F6D50CE0E6
:100ED000FFF70AFE804605E0FFF706FEA0EB0800DC
:100EE0006428F0D828688003F6D42078DFF85CB353
:100EF000DFF85C8380074FF001094FF0000A35D519
:100F0000042F0AD00C2F00D13EB1E068F8B1C8F828
:100F10000090FFF7E9FD06460BE0286880070BD537
:100F2000E068012812D107E0FFF7DEFD801B0228F0
:100F3000C9D828688007F7D5DBF80010226921F4AA
:100F4000F85141EA0221CBF800100FE077E1C8F830
:100F500000A0FFF7C9FD064605E000BFFFF7C4FD8E
:100F6000801B0228AFD828688007F7D42078C006F5
:100F700074D53FB1A069E0B3C8F82090FFF7B4FD85
:100F800006464AE02868800502D5A069002884D07A
:100F9000206ADBF800105E4601F46041884210D9F7
:100FA00001F02EF80028BDD13068216A20F460409D
:100FB00008433060217F306861F31F6030600FE0CC
:100FC00096E0316821F4604101433160217F30684F
:100FD00061F31F603060206A01F012F80028A1D18F
:100FE000216A4FF4004009EB513188409549096866
:100FF00000E025E0974AC1F30311515CC8409649CF
:10100000086096480068FFF78DFD00286FD125E045
:10101000FFF76AFD801B02286AD828688005F7D58B
:10102000DBF80010226A21F460411143CBF8001074
:10103000227FDBF8001062F31F61CBF800100DE097
:10104000C8F820A0FFF750FD064604E0FFF74CFD6E
:10105000801B02284CD828688005F7D42078804E61
:10106000000722D57F48616981B1C0F80090FFF781
:101070003BFD834606E000BFFFF736FDA0EB0B000B
:10108000022835D830688007F6D50EE0C0F800A0F9
:10109000FFF72AFD834605E0FFF726FDA0EB0B00D6
:1010A000022825D830688007F6D4207840076DD50F
:1010B0006B484FF0000B10380068C0000BD4684834
:1010C0001038016841F08051016000684FF0010B59
:1010D00000F08050009064480168C90514D401688C
:1010E00041F480710160FFF7FFFC009008E08DE0A3
:1010F00079E000BFFFF7F8FC0099401A642872D825
:1011000059480068C005F5D5A06801280AD008B183
:10111000052811D0306820F480703060306820F4E9
:10112000806002E0306840F480703060A068A8B150
:10113000FFF7DAFC00900DE0306840F4806030602A
:10114000F0E700BFFFF7D0FC0099411A41F2883068
:1011500081425AD830688005F4D50EE0FFF7C4FC10
:10116000009007E0FFF7C0FC0099411A41F2883077
:1011700081424AD830688005F4D4BBF1000F05D015
:1011800037481038016821F080510160606A58B317
:101190000C2F41D00228504605D0C8F86000FFF758
:1011A000A3FC044634E04746C8F86000FFF79CFC07
:1011B000064604E0FFF798FC801B022825D8286823
:1011C0008001F7D4D4E90A1001431E48226B03685A
:1011D00023F47D031A4311430160C7F86090FFF7C1
:1011E00083FC044607E010E040E000BFFFF77CFC12
:1011F000001B022809D828688001F7D536E000BF17
:10120000FFF772FC001B022802D90320BDE8F88F0B
:1012100028688001F4D429E00128F7D00948006843
:10122000A26A00F48031914209D1E26A00F470119F
:10123000914204D1216B00F44000884216D0012075
:10124000E4E7000008380240003802400438024059
:1012500000004742552E0008380000202C000020D6
:101260003438024080064742007000400020CDE73D
:1012700070B5040005D00025A56294F8510010B1A6
:1012800006E0012070BD84F85050204600F02AF896
:10129000022084F851002068016821F040010160BB
:1012A000D4E901010843D4E90312114308436169F9
:1012B0000843218B01F400710843E1690843216A66
:1012C0000843A16A084321680860A069042101EA73
:1012D0001040216848606565012084F851000020B5
:1012E00070BD000010B586B0044614216846FEF7B4
:1012F00024FF13492068884220D11248016841F434
:1013000080510160006800F4805005900D48001F76
:10131000016841F0010101600068694600F00100C8
:101320000590E02000900220019000200290032010
:101330000390052004900448FFF706FB06B010BD9B
:101340000030014020380240000002402DE9F84FF3
:10135000044690F8500000270A9E1D4692468B4690
:101360004FF0010901280ED0012084F85000FFF74A
:10137000BBFB804694F85100616801280CD0B1F5A0
:10138000827F07D102E00220BDE8F88FA16809B989
:10139000042801D00227C2E0BBF1000F27D0BAF128
:1013A000000F24D01DB394F85100042802D005206A
:1013B00084F8510000206065C4F838A0E587A5874F
:1013C000C4F830B0E586A5862064606420680168B2
:1013D000490603D4016841F040010160E068B0F5BE
:1013E000006F606805D0E8B3012D46D07FE001278B
:1013F00095E008B1012D39D1206B21680088C860C3
:10140000206B801C2063E08E401EE0862EE020686A
:10141000816889070FD5E18E69B1B9F1010F0AD151
:10142000216B0988C160206B801C2063E08E401E08
:10143000E0864FF0000920688168C9070CD0E18F71
:1014400051B1C068A16B0880A06B801CA063E08FC5
:10145000401EE0874FF00109FFF746FBA0EB0800B4
:10146000B04200E009E001D3701C50D1E08E0028AA
:10147000CDD1E08F0028CAD13FE0206B21680078F1
:101480000873206B401C2063E08E401EE0862EE037
:101490002068816889070FD5E18E69B1B9F1010F24
:1014A0000AD1216B09780173206B401C2063E08E08
:1014B000401EE0864FF0000920688168C9070CD003
:1014C000E18F51B1C068A16B0870A06B401CA06394
:1014D000E08F401EE0874FF00109FFF705FBA0EB0E
:1014E0000800B04202D3701C01D010E07EB1E08E43
:1014F0000028CDD1E08F0028CAD14246314620468F
:1015000000F0BEFD28B101272020606507E0032719
:1015100005E0A06818B92068C168806800900120C3
:1015200084F85100002084F8500038462CE710B5AC
:10153000401EB0F1807F01D3012010BD4FF0E024A8
:1015400060610F21601701F0B1FA0020A06107204F
:101550002061002010BD10B5040003D094F83900BC
:1015600010B107E0012010BD002084F838002046AB
:1015700000F00CF8022084F83900211D206801F0E9
:1015800025FA012084F83900002010BD08B5006854
:101590000B49884212D10B48016841F010010160EB
:1015A0000068002200F01000009011461B20FFF799
:1015B00017FBBDE808401B20FFF705BB08BD000076
:1015C000001001402038024070B5044690F8380001
:1015D000012817D0012584F83850022084F83900FA
:1015E0002068826822F0770222F47F4282600868D5
:1015F000502830D00DDC20284DD005DC98B31028C1
:101600003BD148E0022070BD302844D0402834D17E
:1016100039E0602828D0702806D0B0F5805F2CD043
:10162000B0F5005F29D10AE0CB68D1E9012120683B
:1016300001F006FA2068816841F0770109E0CB6883
:10164000D1E90121206801F0FBF92068816841F4AB
:101650008041816011E0CA684968206801F002FA9F
:101660005021206807E016E0CA684968206801F048
:101670000AFA6021206801F0EDF984F83950002061
:1016800084F8380070BDCA684968206801F0EAF93A
:1016900040212068EFE7226801461046EBE77047DB
:1016A00070B50446006801694FF00005C943890719
:1016B00015D4C168C943890711D4E91E016101200D
:1016C0002076206880698007204602D0FFF7E7FF78
:1016D00004E000F078F8204600F076F825762068DF
:1016E0000169C943490717D4C168C943490713D4DD
:1016F0006FF004010161022020762068806910F4F7
:10170000407F204602D0FFF7CAFF04E000F05BF8FC
:10171000204600F059F8257620680169C943090779
:1017200016D4C168C943090712D46FF008010161DA
:10173000042020762068C0698007204602D0FFF789
:10174000AEFF04E000F03FF8204600F03DF82576BB
:1017500020680169C943C90617D4C168C943C906CD
:1017600013D46FF010010161082020762068C06951
:1017700010F4407F204602D0FFF791FF04E000F014
:1017800022F8204600F020F8257620680169C94338
:10179000C90708D1C168C943C90704D1891E0161BD
:1017A000204600F012F820680169C943490609D4AF
:1017B000C168C943490605D46FF040010161204664
:1017C00000F004F870BD7047704770477047FEE73F
:1017D0002DE9F047194C074600216088401E83B26E
:1017E0002088401E82B2084600F05CF9DFF8508085
:1017F0000022102145464046FFF771F901222021C1
:101800002846FFF76CF900264FEA17290CE000255F
:1018100006E0484600F09EFCF8B200F09BFC6D1C10
:101820002088A842F5D8761C6088B042EFD84046A0
:10183000BDE8F04701221021FFF751B9E800002070
:101840000004024010B500F029F903480088BDE803
:10185000104000F0A5BA00003C00002030B587B071
:1018600014216846FEF769FC1A48016841F004013A
:101870000160016801F004010591016841F0200157
:101880000160016801F020010591016841F001014A
:101890000160016801F001010591016841F0020158
:1018A000016000680C4D00F002004FF4FC740590DC
:1018B000012221462846FFF712F90120CDE9004018
:1018C000002002900320039069462846FFF73CF869
:1018D00007B030BD1C3802400004024010B5FFF7CD
:1018E000BDFF00F0C5F8362000F0FEF9002000F042
:1018F000E1F93A2000F0F8F9052000F0DBF9B22018
:1019000000F0F2F90C2000F0D5F90C2000F0D2F92B
:10191000002000F0CFF9332000F0CCF9332000F0A4
:10192000C9F9B72000F0E0F9352000F0C3F9BB2079
:1019300000F0DAF9192000F0BDF9C02000F0D4F968
:101940002C2000F0B7F9C22000F0CEF9012000F001
:10195000B1F9C32000F0C8F9122000F0ABF9C4209F
:1019600000F0C2F9202000F0A5F9C62000F0BCF973
:101970000F2000F09FF9D02000F0B6F9A42000F06D
:1019800099F9A12000F096F9E02000F0ADF9D020FF
:1019900000F090F9042000F08DF90D2000F08AF994
:1019A000112000F087F9132000F084F92B2000F0BB
:1019B00081F93F2000F07EF9542000F07BF94C20A3
:1019C00000F078F9182000F075F90D2000F072F998
:1019D0000B2000F06FF91F2000F06CF9232000F0BD
:1019E00069F9E12000F080F9D02000F063F90420CB
:1019F00000F060F90C2000F05DF9112000F05AF9B8
:101A0000132000F057F92C2000F054F93F2000F08B
:101A100051F9442000F04EF9512000F04BF92F20ED
:101A200000F048F91F2000F045F91F2000F042F9AE
:101A3000202000F03FF9232000F03CF9212000F0A5
:101A400053F9112000F050F9292000F04DF9002041
:101A500000F074F9012208210448FFF740F8BDE8BE
:101A600010404FF6FF70FFF7B3BE000000040240C5
:101A700010B5094C002240212046FFF730F8142011
:101A8000FEF79AFE012240212046FFF728F8BDE824
:101A900010401420FEF790BE000402400B460246A0
:101AA000AFF300802DE9F0411E4C074698461546DD
:101AB0000E46A07A00F018F9A07B3844C0F3072046
:101AC00000F0F8F8A07B3844C0B200F0F3F8A07B37
:101AD0002844C0F3072000F0EDF8A07B2844C0B2F2
:101AE00000F0E8F8207B00F0FFF8E07B3044C0F322
:101AF000072000F0DFF8E07B3044C0B200F0DAF8F5
:101B0000E17B01EB0800C0F3072000F0D3F8E17B94
:101B100001EB0800C0B200F0CDF8BDE8F04100F0E4
:101B2000FDB80000E80000202DE9FF4F81B08A4693
:101B30000EA9DFF8EC9091E83100203800F0FF08A2
:101B40000AEB0400401E83B20198B9F800B000EB24
:101B50005400401E82B251460198FFF7A3FF002DAA
:101B60004FF0000549D12F4808EB480100EB810AEE
:101B700000F2744000EB081817E00C2C03D018F8A2
:101B8000057000260CE01AF80570FAE7F80701D096
:101B9000039800E0049800F003F97F08761CF6B281
:101BA000B6EB540FF2D36D1CEDB2A542E5D326E09F
:101BB0000C2C08D01C4901EB08100026475D0AEBED
:101BC0000500009014E0174808EB480100EB810085
:101BD000F3E70398A9F80000F80706D0009881B24F
:101BE0000198304480B2FFF72DFE7F08761CF6B2D4
:101BF000B6EB540FEDD36D1CEDB2A542D8D30B4814
:101C0000A9F800B04188008805B0491EBDE8F04F32
:101C1000401E8BB282B200210846FFF743BF00008E
:101C20003C000020652E0008D9320008E8000020A2
:101C30002DE9FF4F83B00026DDF840801D46344675
:101C4000B2464FEA5807DFF86490DFF864B028E046
:101C5000281B401EC1B20A2001F0F0F80599B1FB23
:101C6000F0F00A21B0FBF1F201FB120026B9691E67
:101C70008C4201DA28B101263030C0B28DE801056E
:101C800002E020228DE804050398B9F8003007FB34
:101C9000040080B2BBF800200499FFF745FF641CE4
:101CA000E4B2AC42D4D307B0BDE8F08F3E000020D0
:101CB0003C00002070B50B4C054600221021204648
:101CC000FEF70DFF012220212046FEF708FF2846DF
:101CD00000F040FA2046BDE8704001221021FEF7D6
:101CE000FEBE00000004024070B50B4C0546002209
:101CF00010212046FEF7F3FE002220212046FEF7A9
:101D0000EEFE284600F026FA2046BDE8704001228B
:101D10001021FEF7E4BE0000000402400148007AF2
:101D2000FFF7E2BFE800002010B50C46FFF7DCFF2C
:101D3000E0B2BDE81040FFF7BDBF0000174930B466
:101D40002A224A812B228A812C220A810023F02216
:101D500078B1012813D05024022816D003281AD1B4
:101D60000A804A808C73CB73A02130BC3620FFF7E9
:101D7000DBBF0A804A808B73CB730021F5E70A80B2
:101D80004A808B73CB736021EFE70A804A808B73A4
:101D9000CC73C021E9E730BC70470000E8000020A8
:101DA00070B50C4D0446002210212846FEF797FE20
:101DB000012220212846FEF792FE200A00F0CAF9EF
:101DC000E0B200F0C7F92846BDE8704001221021BA
:101DD000FEF785BE0004024070B52A4D2A492868E6
:101DE00008442A49884239D2287900F0F000287145
:101DF000902833D810F00F0FA5F108040DD1001171
:101E00000A280AD2DFE800F03A38363432302E2C75
:101E100007051F4800E01F482060687900F0F000C7
:101E2000A0F160016871612918D2FF2101EB101146
:101E300002208840FEF739FA2168FEF789F96060D0
:101E4000A87900F00E00A871801E072806D295F927
:101E500007000F2802DCE87A7F2811D9002070BD26
:101E60000D48D9E70D48D7E70D48D5E70D48D3E72A
:101E70000D48D1E70D48CFE70D48CDE70D48CBE73A
:101E8000012070BD4800002080B85EE681CE341D80
:101E90000000FA4300007A430000FA4200007A4250
:101EA000D7A326420000FA41D7A3A64185EB79418A
:101EB0005C8F264185EBF9402DE9F04786B014216F
:101EC0006846FEF73AF93A48016841F004010160BA
:101ED000016801F004010591016841F020010160F1
:101EE000016801F020010591016841F001010160E4
:101EF000016801F001010591016841F002010160F2
:101F00000068DFF8B0A000F0020005900022122166
:101F10005046FEF7E4FDDFF8A09041F2FF580022A2
:101F200041464846FEF7DBFD0226012400250096C7
:101F3000CDE90145694650460395FEF705FD1020A1
:101F400003278DE8B10069465046FEF7FDFC01AA63
:101F5000CDF8008082E8B00069464846FEF7F4FC00
:101F60004FF4604000901548CDE9010669464846A7
:101F7000FEF7EAFC4FF4F85000901148CDE9010457
:101F800069465046FEF7E0FC002201211720FEF7CB
:101F900027FE1720FEF717FE002201212820FEF75A
:101FA0001FFE2820FEF70FFE06B0BDE8F0870000F8
:101FB0001C380240000002400004024000001110E2
:101FC000000031100B480A494FF4007201604FF4D1
:101FD0008271416000218160C1600161C0E9051228
:101FE000C1610162416281620A21C162FFF740B9A9
:101FF0000030014054000020FEE7704770470000A9
:1020000038B51C49002309681B4A11F0F00F23D191
:1020100018491C310C68E500184C03D5216801F4FF
:10202000C0540EE00D6845F080550D600D6805F058
:102030008055009524680D6804F4C05425F080553F
:102040000D60B4F5C05F07D1B0F5404F04D1106802
:10205000012340F004001060106820F001001843D4
:102060001060106800F00100984201D0012038BDD6
:10207000002038BD08380240003C0240007000409B
:1020800038B504464068B0F5827F04D094F851001A
:10209000052805D012E000920B460022802103E0C3
:1020A00000920B4600220121204600F009F828B1D9
:1020B000606D40F020006065032038BD002038BD11
:1020C0002DE9F0411D4617460E460446DDF81880FE
:1020D00008E0681C06D0FEF707FDA0EB0800A84248
:1020E0000BD255B12068806836EA000030D000205D
:1020F000B842EED10020BDE8F0812068416821F0AF
:10210000E00141606068B0F5827F0BD1A068B0F556
:10211000004F02D0B0F5806F04D12068016821F033
:1021200040010160A06AB0F5005F09D12068016834
:1021300021F4005101602068016841F40051016000
:10214000012084F85100002084F850000320D2E7D9
:102150000120CDE72DE9F04108240F4F0546660127
:10216000280601D5012200E0002280213846FEF732
:10217000B6FC002231463846FEF7B1FC012231465A
:102180003846FEF7ACFC6806050E641E14F0FF042A
:10219000E6D1BDE8F081000000040240704710B5B0
:1021A00020B1002000F0BEF9012003E0012000F082
:1021B000B9F90020BDE8104000F0CABA4FF4005150
:1021C0000148FEF787BC0000000402400E4800B53D
:1021D000016887B041F0020101600068694600F0C3
:1021E000020005904FF40050009008480190022032
:1021F000029003900648FEF7A7FB00220121282049
:10220000FEF7EEFC07B000BD1C38024000001110C4
:10221000000402402820FEF7C5BC2820FEF7D3BCEE
:102220000C4800B5016887B041F002010160006808
:10223000694600F0020005904FF480400090064887
:1022400001900220029003900448FEF77DFB07B046
:1022500000BD00001C3802400000111000040240C4
:102260000C4800B5016887B041F0020101600068C8
:10227000694600F0020005904FF4004000900648C7
:1022800001900220029003900448FEF75DFB07B026
:1022900000BD00001C380240000011100004024084
:1022A000FEB524482449254A00680144914201D3DF
:1022B0000120FEBDFEF702F80022214BFDF786FF4C
:1022C000FEF709F8044600208DF800008DF80400A0
:1022D0008DF8080000F00AFAC4F307410E46062004
:1022E00000F08EFAC4F307210D46072000F088FAAB
:1022F000E1B2082000F084FA6946062000F036F9C1
:1023000001A9072000F032F902A9082000F02EF9F7
:102310009DF80000B04208D19DF80400A84204D105
:102320009DF80810E0B2884201D00220FEBD0020D6
:10233000FEBD00004800002080B85EE681CE341D5E
:1023400080844E4010B5FFF741FFFFF769FFFFF7AC
:1023500087FF00F093F9012000F0C0F8002000F0A2
:10236000F7F9BDE81040002000F0DCB87CB5FFF7BD
:1023700033FD10B3FFF7E6FF00F02AF900F090F903
:102380000021012000F03CFA8021012000F038FA01
:102390008121012000F034FA00258DF800509121B0
:1023A000242000F02DFA6946242000F0DFF89DF883
:1023B0000000912803D002207CBD01207CBD40217B
:1023C000412000F01DFA23210C2000F019FAFFF73C
:1023D00067FF00F055F806210A2000F011FA3B21B2
:1023E0000B2000F00DFA214C2220E17A00F008FACF
:1023F0002179A0790143A07A012801D0012000E0D1
:10240000002001431D2000F0FBF9607A617901286A
:1024100008D0002001431E2000F0F2F96079602806
:1024200002D013E00420F5E78DF8045001A9312013
:1024300000F09CF89DF8040000F0F8013120491DDF
:1024400000F0DEF90C21372000F0DAF907480838EF
:102450004068B0F1834F01DD082000E0002040F02B
:102460000401262000F0CCF900207CBD48000020AB
:10247000024610210148FEF732BB00000000024076
:1024800038B5154C94F907000F2801DD012038BD3F
:1024900000F02CF9E07940F0F001092000F0B0F9EB
:1024A00000208DF800006946092000F05FF894F9DB
:1024B00007009DF8001040F0F000884201D0022093
:1024C00038BD207A012805D084214D2000F098F9EC
:1024D000002038BD8721F8E74800002070B50F497B
:1024E000044686B0086840F00200086008688D1451
:1024F00000F0020005900120CDE90050029002207A
:10250000074E039069463046FEF71EFA22462946DA
:102510003046FEF7E4FA06B070BD00001C380240F9
:102520000004024070B50F49044686B0086840F0C8
:1025300004000860086840F2014500F004000590BE
:102540000120CDE9005002900220074E0390694619
:102550003046FEF7F9F9224629463046FEF7BFFA23
:1025600006B070BD1C380240000402400122AFF3E7
:10257000008070B5044615460E460020FFF778FF30
:1025800004F07F0000F014F8002405E0002000F0C3
:102590000FF83055641CE4B2AC42F7D3BDE870408C
:1025A0000120FFF765BF0A4601460020FFF7E1BFA3
:1025B00001B582B04FF47A700090012301AA02A9FC
:1025C0000248FEF7C3FE9DF804000EBD5400002033
:1025D00010B50020FFF782FF0220FEF7EDF8012082
:1025E000FFF77CFFBDE810400F20FEF7E5B80000C4
:1025F0007CB5054601A91920FFF7B8FF9DF8041026
:102600001C4C080607D5C843401CC0F385008DF854
:102610000400404202E088088DF8040060816946A9
:102620001A20FFF7A3FFB4F90A00002803DA9DF887
:102630000010081A05E09DF8000000010F21B0FB12
:10264000F1F0A43820810C4CA07A012808D104F1C3
:102650000B011320FFF78AFF00210D2000F0D0F8B6
:10266000E17A2846FFF79FFFFF21122000F0C8F80B
:102670007CBD0000F80000204800002000B585B0B7
:102680001020009001200190002002900320039070
:1026900069460248FEF758F905B000BD0000024047
:1026A00010B5114C0F484FF4007120604FF4827048
:1026B00060600020A060E0602061C4E90501E06185
:1026C00020626062A0620A20E0622046FEF7D0FD30
:1026D00008B1FDF70CFF2068016841F0400101607E
:1026E00010BD000000300140540000208121012075
:1026F00000F086B810B58121012000F081F800219A
:10270000202000F07DF80A21212000F079F80F4800
:10271000C17A222000F074F80020FFF740FD00216C
:102720000D2000F06DF8FF21122000F069F8BF21A4
:10273000112000F065F80021402000F061F88521AB
:10274000BDE81040012000F05BB800004800002008
:1027500030B50F49044687B0086840F002000860B1
:1027600008680C4D00F00200059006200090012042
:10277000019002900220039069462846FEF7E4F893
:10278000224606212846FEF7AAF907B030BD000010
:102790001C3802400004024070B50546812101202A
:1027A00000F02EF80021202000F02AF80A21212034
:1027B00000F026F8114C2220E17A00F021F80120E7
:1027C000FFF7EDFC80210D2000F01AF8E27A29468F
:1027D000002000F01BF8FF21122000F011F8F72173
:1027E000112000F00DF84021084600F009F8BDE87E
:1027F00070408321012000F003B800004800002051
:1028000013B5012201A900F001F81CBD70B5044602
:1028100015460E460020FFF72BFE44F08000FFF720
:10282000C7FE002404E0305DFFF7C2FE641CE4B282
:10283000AC42F8D3BDE870400120FFF719BE00009C
:102840002DE9FF4F83B0884610A9044691E8600443
:10285000814628782C4F9B46002852D03888A0EB20
:102860005601A1424DDB79888A1B424549DB297814
:10287000802915D9801BA04243DB424541DB202E35
:1028800033D0CDE9005A059A182E5B4641462046C2
:1028900034D0FDF72DFEA01984B215F8020FDBE746
:1028A0000D290DD0102E12D910228DE806045B469A
:1028B00041462046059AFFF737F90834A4B211E0E3
:1028C00008EB06001FFA80F84C466D1C0AE08DE804
:1028D00042045B4641462046059AFFF725F904EB82
:1028E000560084B215F8010FB6E7CDE9005A5B46F1
:1028F00041462046059AFDF7E9FECCE7FDF76EFE5E
:10290000C9E707B0BDE8F08FE8000020FEF7F2B895
:1029100000B593B034216846FDF70FFC14210DA8D3
:10292000FDF70BFC1148016821F4C05141F400612E
:10293000016001200090019002200990C0030A90DC
:1029400000010B90C0000C906846FEF77DFA0F2046
:102950000D9003200E9000200F90109011900121F7
:102960000DA8FEF76FF913B000BD00000070004025
:102970000F48016841F4807101600D4908310A680F
:102980000C4B1A400A6002680B4B1A400260026846
:1029900022F480220260086820F47D000860002094
:1029A000091D086005494FF000600860704700008D
:1029B000003802400CC0FF88FEFFFEEE08ED00E08C
:1029C0000148FEF76DBE0000AC00002070B5026843
:1029D0004FF08046154B164CB04203D0984201D0C0
:1029E000A04205D122F070054A682A43B0420CD0BB
:1029F00098420AD0A04208D00E4B984205D00E4B08
:102A0000984202D00D4B984203D122F44073CA6819
:102A10001A430B6922F080021A4302608A68C2627C
:102A2000096881620121416170BD0000000400401D
:102A30000008004000080140000C01400010014067
:102A400010B5846842EA032224F47F440A432243F7
:102A5000826010BD826822F070020A4342F00701D2
:102A60008160704710B5036A046A24F001040462AF
:102A7000846924F0F00444EA021423F00A020A43B1
:102A80008461026210BD10B5036A23F01003036273
:102A90008369046A23F4704343EA023224F0A003FA
:102AA00043EA01118261016210BDFEE70907090EC8
:102AB000002804DB00F1E02080F80014704700F0EB
:102AC0000F0000F1E02080F8141D704702E008C8F4
:102AD000121F08C1002AFAD170477047002001E098
:102AE00001C1121F002AFBD1704700001FB5FEF77D
:102AF00009F8FFF70DFFFFF7DFF9FFF763FA00268C
:102B0000AA48009601960296A749039601601F21E4
:102B1000C0E901164FF47A71C0E9031680214161C2
:102B2000FEF719FD4FF48050009069469F48FEF76C
:102B30004BFD9F480427012401689E4801607021D5
:102B400001719021417187710F21C171047244722A
:102B500084720821C172FEF7C1FE10254FF6FF7A7C
:102B6000FFF704FC50B194A0CDE900051F235246A5
:102B7000F02102940020FFF763FEF1E790A08DE8BA
:102B80006100544653460022E021C020FFF758FE62
:102B90008DA08DE861000022234628211046FFF712
:102BA0004FFE8FA08DE86100002223463821104699
:102BB000FFF746FE90A08DE86100002223464821E1
:102BC0001046FFF73DFE91A08DE8610000222346EC
:102BD00058211046FFF734FE8FA08DE861000022D7
:102BE000234668211046FFF72BFEFDF755FCFFF743
:102BF00081FDDFF8BCB14FF02D08ABF1080B4FF0B1
:102C00002009ABF110046078012815D002280BD000
:102C10000328F8D13220FDF7CFFDFDF73DFC6448D5
:102C20001038FFF7B9FD05E0FFF760FDFDF734FC54
:102C3000FFF760FD6770E6E7FDF72CFC5C4808389D
:102C4000FFF7D6FC78480189A1804189618080899D
:102C5000E0803220FDF7B0FDB4F9020000280DDA63
:102C6000CDF80080CDE901565346002248212020AE
:102C7000FEF75AFF60884042608009E0CDF800907E
:102C8000CDE901565346002248212020FEF74CFF93
:102C9000B4F9040000280DDACDF80080CDE9015622
:102CA0005346002248217820FEF73EFFA08840428C
:102CB000A08009E0CDF80090CDE9015653460022EE
:102CC00048217820FEF730FFB4F9060000280DDA1D
:102CD000CDF80080CDE90156534600225821482006
:102CE000FEF722FFE0884042E08009E0CDF8009046
:102CF000CDE901565346002258214820FEF714FF23
:102D000000950323B4F9022048212820FEF790FF04
:102D100000950323B4F9042048218020FEF788FFA2
:102D200000950323B4F9062058215020FEF780FFB8
:102D30009BF80010012904D0022930D0032921D0AA
:102D40002DE000959BF80120022328212020FEF78A
:102D50006FFF00959BF80220012328213820FEF701
:102D600067FF00959BF80320022328218020FEF7AF
:102D70005FFF00959BF80420012328219820FEF78F
:102D800057FF0CE09BF8010077280BD027A08DE8B7
:102D900061006821534600220846FFF751FD0220DA
:102DA000607030E723A0F2E700100140AC00002083
:102DB00018000020480000204552524F52000000E9
:102DC0004D4153544552000052483A2020302E3095
:102DD0002C2054454D503A2020302E300000000069
:102DE000473A202020302C20523A202020302C201E
:102DF000423A202020300000534E523A202020300A
:102E00002C20525353493A2020203000454E565F23
:102E1000525353493A2030004C6F636B2053746116
:102E20007475733A00000000F80000204F70656E62
:102E300020200000436C6F7365640000024601208F
:102E400000E05043491EC9B2FBD270470304060894
:102E50000C101820300000000000000000010203E8
:102E60000406070809000000000000000000000040
:102E70000000000404040404040004000000140A18
:102E80000A0000000000000000000014143F140AB3
:102E90003F0A0A000000041E1505060C14150F0455
:102EA00000000012150D0A142C2A12000000000464
:102EB0000A0A1E1515093600000002020100000072
:102EC0000000000000002010080808080808102072
:102ED00000000204080808080808040200000000B6
:102EE00004150E0E150400000000000404041F0465
:102EF00004040000000000000000000000000202C6
:102F00000100000000001F000000000000000000A1
:102F1000000000000000020000001008080804047F
:102F2000020202010000000E1111111111110E0018
:102F3000000000040604040404040E000000000E57
:102F40001111080402011F000000000E11100C10E6
:102F500010110E00000000080C0A0A091E081800D3
:102F60000000001F01010F1010110E000000000EE4
:102F700009010F1111110E000000001F09080404BF
:102F8000040404000000000E11110E1111110E00B6
:102F90000000000E1111111E10120E0000000000A2
:102FA0000004000000000400000000000000040015
:102FB000000004040000201008040204081020008F
:102FC00000000000001F00001F00000000000204BD
:102FD00008102010080402000000000E111108045F
:102FE000040004000000000E111915151D011E003B
:102FF00000000004040C0A0A1E1233000000000F37
:1030000012120E1212120F000000001E1101010117
:1030100001110E000000000F1212121212120F0006
:103020000000001F120A0E0A02121F000000001FFB
:10303000120A0E0A020207000000001C12010139E8
:1030400011120C000000003312121E121212330073
:103050000000001F0404040404041F000000003EDC
:10306000080808080808090700000037120A060ABD
:103070000A123700000000070202020202223F008B
:103080000000001B1B1B1B15151515000000003B45
:103090001216161A1A1217000000000E1111111143
:1030A00011110E000000000F12120E0202020700A2
:1030B0000000000E1111111117190E180000000F59
:1030C00012120E0A121237000000001E110106082B
:1030D00010110F000000001F1504040404040E006A
:1030E000000000331212121212120C000000003302
:1030F00012120A0A0C0404000000001515150E0A2D
:103100000A0A0A000000001B0A0A04040A0A1B003B
:103110000000001B0A0A040404040E000000001F43
:103120000908040402121F0000001C040404040423
:103130000404041C00000202020404080808100031
:1031400000000E08080808080808080E0000040A15
:10315000000000000000000000000000000000006F
:10316000000000003F00040000000000000000001C
:103170000000000000000C121C123C0000000003C4
:1031800002020E1212120E000000000000001C12BB
:1031900002021C000000001810101C1212123C0049
:1031A0000000000000000C121E021C00000000388D
:1031B00004041E0404041E000000000000003C1271
:1031C0000C021E221C00000302020E121212370013
:1031D000000000040000060404040E0000000008C3
:1031E00000000C08080808080700000302023A0A59
:1031F0000E123700000000070404040404041F003A
:103200000000000000000F1515151500000000005B
:1032100000000F12121237000000000000000C1214
:1032200012120C000000000000000F1212120E0219
:103230000700000000001C1212121C1038000000D1
:1032400000001B06020207000000000000001E0232
:103250000C101E000000000004040E0404041800FA
:103260000000000000001B1212123C0000000000D1
:10327000000037120A0C04000000000000001515C1
:103280000E0A0A000000000000001B0A040A1B00CE
:1032900000000000000037120A0C040403000000C4
:1032A00000001E0804041E00000018080808040896
:1032B0000808081800080808080808080808080886
:1032C0000800060404040804040404060002251887
:1032D00000000000000000000000000000000000EE
:1032E00000000000000000000000000008080808BE
:1032F00008080800001818000000486C241200009C
:103300000000000000000000000000002424247FD2
:103310001212127F12121200000000081C2A2A0A40
:103320000C1828282A2A1C08080000002225151538
:10333000152A585454542200000000000C12121296
:103340000A76252911916E0000000606040300008C
:1033500000000000000000000000402010100808DD
:103360000808080810102040000002040808101087
:103370001010101008080402000000000008086B7C
:103380001C1C6B0808000000000000000008080872
:10339000087F080808080000000000000000000086
:1033A000000000000006060403000000000000000A
:1033B00000FE00000000000000000000000000000F
:1033C00000000000000606000000008040402020B1
:1033D00010100808040402020000000018244242F1
:1033E000424242424224180000000000080E080831
:1033F0000808080808083E00000000003C4242425D
:103400002020100804427E00000000003C424220C0
:103410001820404042221C000000000020302824D8
:103420002422227E20207800000000007E0202027A
:103430001A26404042221C000000000038240202EC
:103440001A26424242241800000000007E22221068
:103450001008080808080800000000003C4242422A
:103460002418244242423C0000000000182442423A
:103470004264584040241C00000000000000001876
:1034800018000000001818000000000000000000F4
:103490000800000000000808040000004020100898
:1034A0000402040810204000000000000000007F1B
:1034B0000000007F0000000000000000020408106F
:1034C0002040201008040200000000003C42424658
:1034D0004020101000181800000000001C225A554F
:1034E0005555552D42221C000000000008081814F4
:1034F00014243C224242E700000000001F22222246
:103500001E22424242221F00000000007C42420173
:103510000101010142221C00000000001F22424262
:103520004242424242221F00000000003F4212126B
:103530001E12120242423F00000000003F421212DF
:103540001E12120202020700000000003C222201AB
:103550000101712122221C0000000000E7424242CA
:10356000427E42424242E700000000003E08080856
:103570000808080808083E00000000007C10101031
:1035800010101010101010110F0000007722120AF6
:103590000E0A121222227700000000000702020227
:1035A0000202020202427F00000000007736363637
:1035B000362A2A2A2A2A6B0000000000E346464ADF
:1035C0004A52525262624700000000001C224141F0
:1035D0004141414141221C00000000003F42424263
:1035E000423E020202020700000000001C2241418C
:1035F0004141414D53321C60000000003F424242B5
:103600003E1212222242C700000000007C42420209
:103610000418204042423E00000000007F49080894
:103620000808080808081C0000000000E7424242A1
:103630004242424242423C0000000000E742422235
:103640002424141418080800000000006B4949499C
:10365000495555362222220000000000E74224246A
:10366000181818242442E7000000000077222214D2
:103670001408080808081C00000000007E21201023
:103680001008040442423F000000780808080808B7
:103690000808080808080878000000020204040866
:1036A000080810102020204040001E10101010109C
:1036B000101010101010101E000038440000000000
:1036C00000000000000000000000000000000000FA
:1036D0000000000000000000FF00060800000000DD
:1036E00000000000000000000000000000000000DA
:1036F0003C4278444242FC00000000000302020207
:103700001A26424242261A00000000000000000073
:10371000384402020244380000000000604040408B
:10372000784442424264D8000000000000000000DB
:103730003C427E0202423C0000000000F088080883
:103740007E08080808083E00000000000000000095
:103750007C22221C023C42423C0000000302020286
:103760003A4642424242E700000000000C0C0000D2
:103770000E08080808083E00000000003030000075
:1037800038202020202020221E00000003020202F8
:1037900072120A1612227700000000000E080808B4
:1037A0000808080808083E000000000000000000AB
:1037B0007F9292929292B7000000000000000000F9
:1037C0003B4642424242E700000000000000000089
:1037D0003C42424242423C00000000000000000027
:1037E0001B26424242221E02070000000000000089
:1037F0007844424242447840E0000000000000006B
:10380000774C040404041F000000000000000000C6
:103810007C42023C40423E000000000000000808DC
:103820003E08080808083000000000000000000002
:10383000634242424262DC000000000000000000DF
:10384000E7422424140808000000000000000000E3
:10385000EB494955552222000000000000000000FD
:103860007624181818246E000000000000000000E4
:10387000E742242414180808070000000000000094
:103880007E22100808447E000000C0202020202056
:1038900010202020202020C0001010101010101028
:1038A000101010101010101010000608080808085A
:1038B0001008080808080806000C32C200000000C2
:1038C000000000000000000000C9EE000027FC140A
:1038D0000414A4811042084040104017FC2040E02E
:1038E000E0215022482C4620400040DBDA11041130
:1038F00024112411241124FD241124112411241134
:103900002411241D24E124422402040404CAD00208
:1039100000010000007FFC0100010001003FF821D0
:10392000082108210821082128211001000100C8D0
:10393000AB00000000018002400430180860061F40
:10394000F90100010001003FF80100010001007FC2
:10395000FEB6AF0000000000203E20007C002200E8
:10396000227F221022102212221222224223423DC2
:1039700082009CB5E70000010001001FF0610C41CE
:103980000441047FFC4104410441047FFC01000127
:1039900002010201FCD7D3000000003FF800100034
:1039A000600080010000807FFE0040004000200099
:1039B00020002018400780BCBC10201020102013CD
:1039C000FEFC201020102015FC18843088D04810F0
:1039D000501020105051882606CAF5010001200120
:1039E0001001107FFC0380054005400920111021C3
:1039F0000841048102010001000100D3D00200024D
:103A000000FFFE040004000FF0081018102FF0480B
:103A10001088100FF00810081008500820CFDE00A2
:103A2000007BF84A08520853F8620852084BF84ADB
:103A3000444A486A3052204210428843064200B944
:103A4000AB00800480048008400840102020104211
:103A500008820604000440082010203FF0101000E7
:103A600000CBBE00003FF8000800087FE800080017
:103A7000081F8810881088108810881F88108800F8
:103A8000280010BBB600800080FC8004FC050449BF
:103A9000082A401440104028A024A045108110029C
:103AA0000804040802D3AD00002080133C12240255
:103AB000240224F2241224122412B41328122010F7
:103AC00020282047FE0000C4FA0900090011FC323A
:103AD0000454489950114812441444114010800273
:103AE000005104511290120FF0B4BF0000002010DA
:103AF0002013FE202026244A247A24122422242360
:103B0000FC7C20002204227822003CC9AB0000008B
:103B10000004000FF0102020207FFC20842084204F
:103B20008420843FF82000200220021FFECCEE00FB
:103B3000000000204023FE204079FC220423FC22C8
:103B40000423FC220423FC3A0465FA01980204B31E
:103B5000E40000010001007FFE02200410040808B8
:103B6000043FFC0442044004400442084210426006
:103B70007EBED800000000207E3E804880488048FD
:103B8000FE48827F8208820C8214FA1284228021ED
:103B90008040FED0CE000000007F84220822302228
:103BA000C0220222047FC8223022C2220222042222
:103BB0000822304040BBAD000000007FFE00000F37
:103BC000F011101110111051125FF25112511251D7
:103BD000124FF240027FFCD4B2000000007FFE478B
:103BE000E24812481247E24FF2501250125112515D
:103BF0001242924472580A3FFCCDBC000000003FC4
:103C0000FE440247F24C225362408243625E1A41F4
:103C1000824062430240C240223FFCC6AC0000002A
:103C2000402040204020403FFE2000200020003F58
:103C3000E0201020102010201040104010CFD400A1
:103C40000000003FFC200420043FFC200420041F4F
:103C5000F824441448144814480C5004407FFECA09
:103C6000BE000000003FFC0000000000007FFE00DE
:103C70008008900888108810842084208240820761
:103C800080B2CB0000002008207FFE002000783F9B
:103C9000881108089009207FFE018003400D303113
:103CA0000C4002B5A500000010081004203FF821C8
:103CB0000421043FFC210421043FF801007FFE01A0
:103CC0000001000100D6D000000100010001003F0A
:103CD000FC2104210421042104210421043FFC01CE
:103CE00000010001000100D3A20000000008207FB5
:103CF000FE0820092001003FF82108210821081FA3
:103D0000F4014002200C10700ECEC400000100012E
:103D10000000803F7C0810081004100420022002DC
:103D2000400180018002601C18E006D7DB00000023
:103D300000102011FE2202220249FC58003000131C
:103D4000FE2528792401240D24722202A2BACF0074
:103D5000000000018002400430180860061FF800CF
:103D6000001FF8200420042004200420041FF8C1B0
:103D7000C10000010001007FFE00003FF820083F65
:103D8000F83FF8400647C248240820082210226065
:103D90003EB6C80000000000803FFE44105FFC44B7
:103DA00010441043F040005FF84408423041C043E3
:103DB00060BC1EB2E20000000067C214520552054A
:103DC00052C55225520552055215521752228222CF
:103DD000424442483ECAD400000000201410141788
:103DE000FE00120010601013F0109010901090144C
:103DF0009214EA1F0A0006B3CC0000000019FE72FC
:103E000002120212027DFC18001BFE3420502053C7
:103E1000FE10201020102013FED0F2000000000041
:103E2000803FFE400047FC4208413040C05FFE40FA
:103E30004240424044404840404440B5F700000002
:103E40000023FE122202FA0222E22212FE12721253
:103E50008A128A128A16BA1A421202040EB9E200B3
:103E6000000100010411080908091009207FFE045F
:103E700040044004400440084208421042607CB0C4
:103E8000E60000000048FE4900490049007EFE416E
:103E90008241447944452845284510452846440335
:103EA00082C8A800001000100013FC7D0411041942
:103EB0000418843488504850501020105010881333
:103EC000041402CBF9000000003F7C204020403E5B
:103ED00040227E2244224422443E84208420844086
:103EE0008441044204C6C100003FF8200820083F76
:103EF000F8241022202FF8222022203FFC222042EA
:103F000020442084200820C4BB04407FFC04401FC0
:103F1000F010101FF010101FF00400FFFE11103FF2
:103F2000F8D116115011200100D0FD208010801012
:103F3000FE0100FE0021FC20243C2424A024A02417
:103F4000BC24A024A04560553E8A00D7AA2020208A
:103F5000202020FDFC4020504093FEFC40108011AA
:103F6000FC1C04F0885050102010101010BFAA0044
:103F7000007FFC08200820082008200820FFFE08F9
:103F8000200820082008201020102020204020D4C5
:103F9000B4000027FE1420144085FC450445FC15A0
:103FA0000415FC2524E42024A829242A2230A0007A
:103FB00040D2BA0080204017FE11208120423C42AE
:103FC00044166412942348E24822302220225022D0
:103FD000880306BEA70FE0082008200FE00820088D
:103FE000200FE000007EFC428442847EFC4284423A
:103FF000847EFC4284CDF800007FFC4004400442F3
:104000001452944A54442444244A544A54529461C5
:1040100004400440144008D5BE1020082008207E2B
:1040200020003E04204420442025FC290429040FBC
:1040300004F104410401FC0104B0B410401020104C
:104040002013FEFA02144410401BFE3088D0881161
:104050000810D01020105050882304BCFC201020E1
:10406000103B7C211441FE7A14A27C2710F97C2598
:104070001025FE22102A10350028FE0000D0A310C3
:10408000401020102011FEFC00108831043A025428
:10409000885088905010501020105010881306D768
:1040A000BC01404120212023FE022016201BFC12CF
:1040B00020222023FCE2202220222023FE220002B4
:1040C00000B4A520202020782049FC91247D24558F
:1040D0002455247DFC552454207C28542457FE4527
:1040E000028C00C3FE1110111017FC1110FC0013FC
:1040F000F8120817F81A0833F8D04017FC10A0116E
:104100001052082406C9EE00000000000010000054
:104110000800080C7FFC04401001C8A0021860428F
:10412000301832231812C30014030004030C047F58
:10413000F0080F80080B40781360183320186318BC
:1041400018831C190308180300000300000000DB9B
:10415000DA00000000000004100C04180C04108C9D
:1041600004108C04108C04108C04D08C3F108C0430
:10417000108C04108C04108C04108C04108C04100F
:104180008C05F08C0E208C78208C20408C00808C4C
:1041900001000C02000C000000CAD000000000006A
:1041A0000000300000180000180800001C1FFFE08D
:1041B00000180000182007FFF0041820041820043D
:1041C00018200418200418200418200418200418AB
:1041D000200418200418E0041840001800001800FB
:1041E000000000D6D0000000000000000000000029
:1041F000000018000018000018000018003FFFFE23
:104200003018063018063018063018063018063FE9
:10421000FFFE3018060018000018000018000018F3
:1042200000001800000000000000000000CEC400E4
:104230000000000000000000003800001C00000624
:1042400000FFFFFF0600300600300300600300603F
:104250000180C000C18000E300003600001C0000A7
:10426000770003C1E01E003C600007000000000072
:1042700000000000000000B2E200000000000000AA
:10428000000000000040000321FF33398333118315
:1042900033019B33C19B33719B33199B33019B3398
:1042A000019B33119B3319B333303033306C0330FF
:1042B000C6036383032E01BE00000000000000005F
:1042C00000CAD40000000000000000000000004010
:1042D00000D83000CE1800C21C00C001FFFF000053
:1042E000C0F800C01800C019FFC0181840181860A6
:1042F0001918601B18611E18311C1FB139F01910F4
:10430000000F000000000000000000D7D6000000F1
:104310000000060000000300000000C0000001C013
:10432000C0000107C00001FF00021FFE0007F01CD3
:104330000007C070000F00E0000E03F0001C0FF03B
:10434000003C0F70003C00E0001800C0000000C0FE
:10435000000000C0000000600000002000000037E6
:10436000000001FF00007FF80007F830001F8030D8
:10437000000080300000C03000006060000018E0E5
:1043800000000FC0000006000000000000CCE500A7
:1043900000000000000000000000C0000000E0007D
:1043A0002001B800703FF80061FFC000C3030001A6
:1043B000C60600038C060003080C0006080C000E5D
:1043C00018183F1E101BF31F903F0700803C1C0174
:1043D00090707C019060FE01A0C3F801A00FD8038B
:1043E000A00818036000180340001803C000180359
:1043F00080001803000018000000180000001000E2
:10440000000030000000300000000000000000B29A
:10441000E2000000000000000000000000000000BA
:1044200000020C1008071FF80403BFF00201BC30A3
:104430000303EC3003015C600300D8600300D86024
:10444000038098620361B8430771B1430631324378
:10445000063376C3063A64C7063EECC0063E78C013
:10446000063C3040067C70000678E060067BFFF07A
:1044700006F7C00006E40000064000000600000049
:10448000060000007C00008FF000007C00000000AF
:1044900000CAD4000000000000000000000000007E
:1044A000003F0000007F8000000180000000C0008D
:1044B0000000C0000000CE038000CFFFC000DD413F
:1044C000800FFE0007FFFC000C00F000180FC03E3C
:1044D00019FF40F311BC6083307FE003B1FE20037D
:1044E0003380200370003003600010036000180761
:1044F000C0000C07C0000407800002010000030098
:1045000000000100000000000000000000000000AA
:1045100000000000344500080000002054000000A6
:10452000CC2A00088845000854000020B40400008C
:10453000DC2A00080000000000000000000000006D
:1045400000000000000000000000000080D60F1CEA
:1045500040FF7A1D80FB651E00A1BC33C0CA8936AE
:1045600010000000010000000000000068FF1F00B4
:104570000000FFFF0000FA436F12833F80A1031C7D
:084580009080020F01010140CF
:04000005080000F5FA
:00000001FF
