:020000040800F2
:10000000F004002009010008D3160008831400083A
:10001000D1160008930400086F20000800000000BB
:100020000000000000000000000000002D18000883
:10003000A104000800000000D5160008CF1E00082B
:100040002301000823010008230100082301000800
:1000500023010008230100082301000823010008F0
:1000600023010008C1040008C70400082301000898
:1000700023010008230100082301000823010008D0
:1000800023010008230100082301000823010008C0
:1000900023010008230100082301000823010008B0
:1000A000000000002301000823010008851F00084C
:1000B0002301000823010008230100082301000890
:1000C0002301000823010008230100082301000880
:1000D0002301000823010008230100082301000870
:1000E000A3040008230100082301000823010008DD
:1000F00023010008DFF80CD000F0AAF900480047FF
:10010000F9200008F0040020064880470648004710
:10011000FEE7FEE7FEE7FEE7FEE7FEE7FEE7FEE7B7
:10012000FEE7FEE7351F0008F5000008D2B201E047
:1001300000F8012B491EFBD270470022F6E710B5EC
:1001400013460A4604461946FFF7F0FF204610BD45
:1001500030B480EA010202F0004530F0004221F0A4
:10016000004013D090B1C30DD40DC2F31601C0F3FB
:100170001600E41A41F4000140F400027D3491427B
:1001800001D3641C00E04900002C02DA30BC0020DE
:1001900070474FF400000023914201D3891A0343B2
:1001A00040084FEA4101F7D151B1914202D14FF0DD
:1001B000004105E002D24FF0010101E06FF00101C2
:1001C00003EBC450284430BC00F0AEB82DE9F04D2C
:1001D00081EA030404F0004B21F0004514464FF07F
:1001E000000A23F0004150EA050220D054EA01023F
:1001F0001DD0C5F30A570246C5F31303C1F313001C
:10020000C1F30A5640F4801543F48013A7EB0608A7
:10021000101BD64608F2FD3873EB050002D308F137
:10022000010801E092185B41B8F1000F03DA0020E9
:100230000146BDE8F08D00204FF48011064684464B
:100240000EE0171B73EB050705D3121B63EB0503C9
:1002500006434CEA010C49084FEA300092185B4112
:1002600050EA0107EDD152EA030012D082EA0400FD
:1002700083EA0501084305D0101BAB4106D20122D9
:10028000002306E000224FF0004302E06FF001027D
:1002900053101AEB06004CEB085110EB0A0041EB2F
:1002A0000B01BDE8F04D00F076B8C10F80EAE070B8
:1002B0000844CA079623002100F03FB80EB540F26B
:1002C000334102910021CDE900110A460B4600F0AE
:1002D00071F803B000BDC1F30A5210B5C1F31301A8
:1002E00040F2FF3341F480119A4201DA002010BD40
:1002F00040F233439A42A2F2334203DC524200F00E
:1003000003F810BD904010BD202A04DB203A21FAEA
:1003100002F00021704721FA02F3D040C2F120021E
:1003200091400843194670470029A8BF7047401CF8
:10033000490008BF20F00100704710B4B0FA80FCFB
:1003400000FA0CF050EA010404BF10BC704749B138
:10035000CCF1200421FA04F411FA0CF118BF0121A8
:1003600021430843A3EB0C01CB1D4FEA00614FEA88
:10037000102042BF002010BC704700EBC350104457
:100380000029A4BF10BC7047401C490008BF20F0E2
:10039000010010BC704710B5141E73F1000408DA98
:1003A000401C41F1000192185B411A4301D120F039
:1003B000010010BD2DE9F04D92469B4611B1B1FAF6
:1003C00081F202E0B0FA80F22032904600F052F85A
:1003D00004460F4640EA0A0041EA0B0153465A46DA
:1003E000084313D0114653EA010019D0C8F1400266
:1003F0005046FFF789FF05460E465046594642468D
:1004000000F038F8084305D0012004E020463946C2
:10041000BDE8F08D0020054346EAE0762C433743E3
:100420000A986305E40AA0EB08000022FD0A44EAEA
:1004300047540A3002D500200146E9E701051019AA
:100440006941DDE9084500196941BDE8F04DA2E7C1
:10045000064C074D06E0E06840F0010394E8070011
:1004600098471034AC42F6D3FFF748FEE422000868
:1004700004230008202A04DB203A00FA02F10020BD
:1004800070479140C2F1200320FA03F319439040D2
:100490007047FEE701F006BA01F007BA01F0D6B9DD
:1004A000704710B54FF4005000F05EF84FF48040F4
:1004B00000F05AF8BDE810404FF4004000F054B886
:1004C000082000F051B8102000F04EB8704700002E
:1004D00070B5044600F02AF90546601C02D00448B5
:1004E0004068044400F022F9401BA042FAD370BDDA
:1004F0002800002038B51A4D0446B0F5005F05D03D
:10050000B4F5804F02D0B4F5004F15D1FFF7C6FF08
:10051000012811D16946122001F070FBFF21122041
:1005200001F0B6FC9DF80000010701D5022002E0B1
:10053000400601D50120A870082C0BD0102C0DD13D
:100540001021084800F0E2F8002807D1BDE8384043
:1005500001F072BE01F0ACFD0320A87038BD0000B0
:100560000000002000040240044910B50A6802425D
:1005700002D00860FFF7BEFF10BD00001404014068
:100580002DE9F84FDFF864B100234FF0010C4FF074
:10059000030A4FF00F090BF1040EA0E00CFA03F66A
:1005A000324072D04C68022C01D0122C0ED1DC08E3
:1005B00000EB8408D8F820405D07EF0E09FA07F534
:1005C000AC430D69BD402543C8F8205007685D0065
:1005D00091F804800AFA05F408F00308A74308FA22
:1005E00005F848EA0708C0F800804F68012F05D0D9
:1005F000022F03D0112F01D0122F11D18768D1F80B
:100600000C80A74308FA05F848EA0708C0F80880F4
:100610004768B7430E79C6F300169E403E434660D6
:10062000C668A6438C68AC403443C4604C68E400A0
:1006300054D52F4C256845F001052560246823F02A
:10064000030504F0010400942A4C2544AF689C077C
:10065000240F09FA04F6B743274EB04201D1002611
:1006600015E0264EB04201D1012610E0244EB042E2
:1006700001D102260BE0234EB04201D1032606E051
:10068000214EB04202D1042601E027E00526A64013
:100690003E43AE60DBF800405D464E689443F6038F
:1006A00000D514432C60DEF8004075464E68944334
:1006B000B60300D514432C600C4D08352C684E68E9
:1006C0009443F60200D514432C60084D0C352C6879
:1006D0004E689443B60200D514432C605B1C0A6834
:1006E00032FA03F47FF45AAFBDE8F88F00040140FA
:1006F0002038024000000140000002400004024097
:1007000000080240000C024000100240006908404E
:1007100000D00120704742690A4200D0090481617B
:1007200070470AB1816170470904FBE7014880689E
:100730007047000028000020024881684268114488
:10074000816070472800002010B50024032000F0CD
:1007500089F8002000F008F808B1012401E000F059
:1007600025F8204610BD000070B50E4E0546002449
:10077000706898B14FF47A71B1FBF0F00A490968DA
:10078000B1FBF0F000F0F5FC40B9102D06D20022CC
:100790002946501E00F046F8356000E0012420464E
:1007A00070BD000028000020340000200D4808B56E
:1007B000016841F000410160016801F000410091D1
:1007C000011F0A6842F001020A60096801F0010194
:1007D0000091016841F080510160006800F0805094
:1007E000009008BD2438024000280DDB00F01F02F5
:1007F000012191404009800000F1E020C0F8801103
:10080000BFF34F8FBFF36F8F7047002809DB00F0F5
:100810001F02012191404009800000F1E020C0F852
:1008200000117047F0B40E4B1B680C46C3F3022353
:10083000C3F10705042D00D90425191D072901D28C
:10084000002300E0DB1E012606FA05F1491E2140C7
:1008500099409E40761E16403143F0BC01F008BC22
:100860000CED00E0064900F0070208684FF6FF03B0
:10087000184040EA0220034A104308607047000015
:100880000CED00E00000FA052DE9F0470E460500EA
:1008900079D0DFF88481D8F8000000F00100B04280
:1008A00014D2012E05D1D8F8001041F00401C8F887
:1008B0000010D8F8001021F001013143C8F80010F1
:1008C000D8F8000000F00100B0425CD12878534C09
:1008D000800705D52068A96820F0F0000843206053
:1008E0002878C0075CD04D496868083902281AD0BA
:1008F00003281BD0096801281BD08905002966DA66
:10090000216821F0030101432160FFF70FFF6968AF
:10091000074641F28830022914D0032920D001294A
:1009200081462AD038E009688903E7E70968890128
:10093000E4E78907E2E700BFFFF7F8FEC11B49457E
:1009400001D926E081462068C0F381000228F3D156
:1009500026E000BFFFF7EAFEC11B494501D918E0B8
:1009600081462068C0F381000328F3D118E000BF5E
:10097000FFF7DCFEC11B49450BD82068C0F381009E
:100980000128F5D10CE022E0FFF7D0FEC11B49455C
:1009900002D90320BDE8F087206810F00C0FF3D1D6
:1009A000D8F80010404601F00101B14211D9012EE2
:1009B00003D1016841F004010160016821F00101E7
:1009C00031430160006800F00100B04201D0012015
:1009D000E0E72878400705D52068E96820F4E06062
:1009E000084320602878000706D52068296920F48C
:1009F000605040EAC100206000F018F82168084A01
:100A0000C1F30311515CC8400649086006480068FC
:100A1000BDE8F047FFF7A8BE003C0240083802409E
:100A2000D12200083400002028000020134A116859
:100A300001F00C0004280CD008280CD00C280CD095
:100A4000101F0068C0F342314FF40040491C884039
:100A500070470B4870470B4870470B48C1F38343FE
:100A60001268C05CC1F38151491CD20301D5054A0B
:100A700000E0034A5043B0FBF1F0704708380240F1
:100A80000024F40000127A00C82200082DE9F84F73
:100A900004007DD0FC480168006801F00C0700F4F8
:100AA00080362078F94DC00741D0082F12D00C2F86
:100AB00002D1B6F5803F0DD06068012811D008B191
:100AC000052818D0286820F480302860286820F491
:100AD000802009E02868800329D560680028D8D0E4
:100AE00025E0286840F480302860606890B1FFF706
:100AF0001DFE80460AE0286840F480202860F0E768
:100B0000FFF714FEA0EB080064287BD82868800358
:100B1000F6D50CE0FFF70AFE804605E0FFF706FE7B
:100B2000A0EB08006428F0D828688003F6D4207869
:100B3000DFF85CB3DFF85C8380074FF001094FF00A
:100B4000000A35D5042F0AD00C2F00D13EB1E06841
:100B5000F8B1C8F80090FFF7E9FD06460BE02868F9
:100B600080070BD5E068012812D107E0FFF7DEFD12
:100B7000801B0228C9D828688007F7D5DBF8001049
:100B8000226921F4F85141EA0221CBF800100FE06C
:100B900077E1C8F800A0FFF7C9FD064605E000BFF1
:100BA000FFF7C4FD801B0228AFD828688007F7D460
:100BB0002078C00674D53FB1A069E0B3C8F8209092
:100BC000FFF7B4FD06464AE02868800502D5A06913
:100BD000002884D0206ADBF800105E4601F46041F2
:100BE000884210D900F078FD0028BDD13068216A14
:100BF00020F4604008433060217F306861F31F605B
:100C000030600FE096E0316821F4604101433160CB
:100C1000217F306861F31F603060206A00F05CFD66
:100C20000028A1D1216A4FF4004009EB51318840DE
:100C30009549096800E025E0974AC1F30311515C2A
:100C4000C8409649086096480068FFF78DFD002867
:100C50006FD125E0FFF76AFD801B02286AD828685B
:100C60008005F7D5DBF80010226A21F460411143BA
:100C7000CBF80010227FDBF8001062F31F61CBF885
:100C800000100DE0C8F820A0FFF750FD064604E074
:100C9000FFF74CFD801B02284CD828688005F7D44C
:100CA0002078804E000722D57F48616981B1C0F865
:100CB0000090FFF73BFD834606E000BFFFF736FDDF
:100CC000A0EB0B00022835D830688007F6D50EE07F
:100CD000C0F800A0FFF72AFD834605E0FFF726FDD8
:100CE000A0EB0B00022825D830688007F6D42078C6
:100CF00040076DD56B484FF0000B10380068C000FE
:100D00000BD468481038016841F0805101600068D8
:100D10004FF0010B00F08050009064480168C90555
:100D200014D4016841F480710160FFF7FFFC00906A
:100D300008E08DE079E000BFFFF7F8FC0099401A69
:100D4000642872D859480068C005F5D5A068012804
:100D50000AD008B1052811D0306820F480703060C6
:100D6000306820F4806002E0306840F480703060C9
:100D7000A068A8B1FFF7DAFC00900DE0306840F4FD
:100D800080603060F0E700BFFFF7D0FC0099411AA7
:100D900041F2883081425AD830688005F4D50EE09F
:100DA000FFF7C4FC009007E0FFF7C0FC0099411A70
:100DB00041F2883081424AD830688005F4D4BBF1D2
:100DC000000F05D037481038016821F080510160CC
:100DD000606A58B30C2F41D00228504605D0C8F89D
:100DE0006000FFF7A3FC044634E04746C8F8600003
:100DF000FFF79CFC064604E0FFF798FC801B0228E6
:100E000025D828688001F7D4D4E90A1001431E4888
:100E1000226B036823F47D031A4311430160C7F872
:100E20006090FFF783FC044607E010E040E000BF5D
:100E3000FFF77CFC001B022809D828688001F7D541
:100E400036E000BFFFF772FC001B022802D9032026
:100E5000BDE8F88F28688001F4D429E00128F7D094
:100E600009480068A26A00F48031914209D1E26A1F
:100E700000F47011914204D1216B00F440008842CB
:100E800016D00120E4E70000083802400038024094
:100E90000438024000004742D122000834000020FC
:100EA000280000203438024080064742007000408D
:100EB0000020CDE770B5040005D00025A56294F8A8
:100EC000510010B106E0012070BD84F8505020465A
:100ED00000F02AF8022084F851002068016821F00F
:100EE00040010160D4E901010843D4E90312114330
:100EF000084361690843218B01F400710843E169EB
:100F00000843216A0843A16A084321680860A06970
:100F1000042101EA1040216848606565012084F8D9
:100F20005100002070BD000010B586B004461421A9
:100F30006846FFF702F913492068884220D1124819
:100F4000016841F480510160006800F48050059010
:100F50000D48001F016841F0010101600068694609
:100F600000F001000590E020009002200190002098
:100F7000029003200390052004900448FFF700FB33
:100F800006B010BD00300140203802400000024091
:100F90002DE9F84F044690F8500000270A9E1D46A0
:100FA00092468B464FF0010901280ED0012084F8AB
:100FB0005000FFF7BBFB804694F8510061680128A0
:100FC0000CD0B1F5827F07D102E00220BDE8F88F96
:100FD000A16809B9042801D00227C2E0BBF1000FC3
:100FE00027D0BAF1000F24D01DB394F85100042883
:100FF00002D0052084F8510000206065C4F838A0B4
:10100000E587A587C4F830B0E586A58620646064CE
:1010100020680168490603D4016841F0400101607D
:10102000E068B0F5006F606805D0E8B3012D46D0E8
:101030007FE0012795E008B1012D39D1206B2168AF
:101040000088C860206B801C2063E08E401EE08614
:101050002EE02068816889070FD5E18E69B1B9F16A
:10106000010F0AD1216B0988C160206B801C2063AD
:10107000E08E401EE0864FF0000920688168C907B5
:101080000CD0E18F51B1C068A16B0880A06B801CAF
:10109000A063E08F401EE0874FF00109FFF746FB99
:1010A000A0EB0800B04200E009E001D3701C50D171
:1010B000E08E0028CDD1E08F0028CAD13FE0206B20
:1010C000216800780873206B401C2063E08E401E6E
:1010D000E0862EE02068816889070FD5E18E69B12E
:1010E000B9F1010F0AD1216B09780173206B401C03
:1010F0002063E08E401EE0864FF000092068816882
:10110000C9070CD0E18F51B1C068A16B0870A06B0A
:10111000401CA063E08F401EE0874FF00109FFF7FD
:1011200005FBA0EB0800B04202D3701C01D010E018
:101130007EB1E08E0028CDD1E08F0028CAD1424692
:101140003146204600F008FB28B1012720206065C9
:1011500007E0032705E0A06818B92068C168806827
:101160000090012084F85100002084F85000384697
:101170002CE710B5401EB0F1807F01D3012010BDD7
:101180004FF0E02460610F21601700F071FF002034
:10119000A06107202061002010BD10B5040003D01D
:1011A00094F8390010B107E0012010BD002084F848
:1011B0003800204600F00CF8022084F83900211D88
:1011C000206800F0E5FE012084F83900002010BD01
:1011D00008B500680B49884212D10B48016841F0FC
:1011E000100101600068002200F01000009011461C
:1011F0001B20FFF717FBBDE808401B20FFF705BBCE
:1012000008BD000000100140203802400168CA6893
:1012100042F00102CA600068816801F007010629F6
:1012200003D0016841F001010160002070470168AE
:10123000CA6822F00102CA600068016A41F2111214
:10124000114203D1016821F00101016000207047C3
:1012500070B5044690F83800012817D0012584F8AD
:101260003850022084F839002068826822F0770222
:1012700022F47F4282600868502830D00DDC20289C
:101280004DD005DC98B310283BD148E0022070BD5A
:10129000302844D0402834D139E0602828D0702844
:1012A00006D0B0F5805F2CD0B0F5005F29D10AE000
:1012B000CB68D1E90121206800F0A4FE2068816894
:1012C00041F0770109E0CB68D1E90121206800F005
:1012D00099FE2068816841F48041816011E0CA680C
:1012E0004968206800F0A0FE5021206807E016E061
:1012F000CA684968206800F0A8FE6021206800F0F4
:101300008BFE84F83950002084F8380070BDCA681C
:101310004968206800F088FE40212068EFE72268D5
:1013200001461046EBE7704770B504460068016956
:101330004FF00005C943890715D4C168C94389071F
:1013400011D4E91E016101202076206880698007A0
:10135000204602D0FFF7E7FF04E000F078F82046CF
:1013600000F076F8257620680169C943490717D44B
:10137000C168C943490713D46FF004010161022019
:1013800020762068806910F4407F204602D0FFF765
:10139000CAFF04E000F05BF8204600F059F825761B
:1013A00020680169C943090716D4C168C943090700
:1013B00012D46FF008010161042020762068C06912
:1013C0008007204602D0FFF7AEFF04E000F03FF8B0
:1013D000204600F03DF8257620680169C943C9061A
:1013E00017D4C168C943C90613D46FF01001016155
:1013F000082020762068C06910F4407F204602D083
:10140000FFF791FF04E000F022F8204600F020F8FA
:10141000257620680169C943C90708D1C168C94355
:10142000C90704D1891E0161204600F013F8206825
:101430000169C943490609D4C168C943490605D4AD
:101440006FF040010161204600F01AF870BD70474E
:1014500070470000084810B54178491CC9B2417076
:10146000022908D90024447004700448FFF7DFFE05
:1014700002480068446210BD00000020A400002063
:101480007047FEE770B52A4D2A49286808442A4962
:10149000884239D2287900F0F0002871902833D89A
:1014A00010F00F0FA5F108040DD100110A280AD27F
:1014B000DFE800F03A38363432302E2C07051F486A
:1014C00000E01F482060687900F0F000A0F16001A2
:1014D0006871612918D2FF2101EB101102208840A8
:1014E000FEF7E3FE2168FEF733FE6060A87900F0A6
:1014F0000E00A871801E072806D295F907000F2854
:1015000002DCE87A7F2811D9002070BD0D48D9E7A8
:101510000D48D7E70D48D5E70D48D3E70D48D1E78B
:101520000D48CFE70D48CDE70D48CBE7012070BD52
:101530004000002080B85EE681CE341D0000FA43F2
:1015400000007A430000FA4200007A42D7A3264204
:101550000000FA41D7A3A64185EB79415C8F264173
:1015600085EBF9402DE9F04186B014216846FEF77D
:10157000E4FD4548016841F004010160016801F0A3
:1015800004010591016841F020010160016801F04A
:1015900020010591016841F001010160016801F03D
:1015A00001010591016841F0020101600068374FB7
:1015B00000F002000590012207213846FFF7B1F83C
:1015C000002210213846FFF7ACF8DFF8C480002273
:1015D00041F627414046FFF7A4F807200090012577
:1015E0000024CDE90154694638460394FEF7C8FF4C
:1015F00010200326CDE90005CDE9024669463846AC
:10160000FEF7BEFF41F60740CDE90005CDE90246F1
:1016100069464046FEF7B4FF4FF4604000901D4815
:1016200001900220029069464046FEF7A9FF18206B
:1016300000901948CDE9010569464046FEF7A0FF34
:1016400020200090CDE90154694640460394FEF7FE
:1016500097FF002201210920FFF7E4F80920FFF796
:10166000D4F8002201210A20FFF7DCF80A20FFF756
:10167000CCF8002201212820FFF7D4F82820FFF71A
:10168000C4F806B0BDE8F0811C38024000000240FA
:101690000004024000001110000031100B480A49FC
:1016A0004FF4007201604FF482714160002181604B
:1016B000C1600161C0E90512C161016241628162DC
:1016C0000A21C162FFF7F6BB003001404C00002048
:1016D000FEE770477047000038B51C4900230968D1
:1016E0001B4A11F0F00F23D118491C310C68E5009A
:1016F000184C03D5216801F4C0540EE00D6845F084
:1017000080550D600D6805F08055009524680D68C2
:1017100004F4C05425F080550D60B4F5C05F07D1C6
:10172000B0F5404F04D11068012340F00400106070
:10173000106820F0010018431060106800F00100EC
:10174000984201D0012038BD002038BD0838024041
:10175000003C02400070004038B504464068B0F5D7
:10176000827F04D094F85100052805D012E0009241
:101770000B460022802103E000920B46002201214B
:10178000204600F009F828B1606D40F02000606547
:10179000032038BD002038BD2DE9F0411D46174615
:1017A0000E460446DDF8188008E0681C06D0FEF7F7
:1017B000BDFFA0EB0800A8420BD255B1206880689D
:1017C00036EA000030D00020B842EED10020BDE85B
:1017D000F0812068416821F0E00141606068B0F567
:1017E000827F0BD1A068B0F5004F02D0B0F5806FBA
:1017F00004D12068016821F040010160A06AB0F5C1
:10180000005F09D12068016821F40051016020685F
:10181000016841F400510160012084F8510000206A
:1018200084F850000320D2E70120CDE7704710B5BF
:1018300020B1002000F0BEF9012003E0012000F0FB
:10184000B9F90020BDE8104000F0CABA4FF40051C9
:101850000148FEF75BBF0000000402400E4800B5DF
:10186000016887B041F0020101600068694600F03C
:10187000020005904FF400500090084801900220AB
:10188000029003900648FEF77BFE002211462820B6
:10189000FEF7C8FF07B000BD1C3802400000111061
:1018A000000402402820FEF79FBF2820FEF7ADBFAE
:1018B0000C4800B5016887B041F002010160006882
:1018C000694600F0020005904FF480400090064801
:1018D00001900220029003900448FEF751FE07B0E9
:1018E00000BD00001C38024000001110000402403E
:1018F0000C4800B5016887B041F002010160006842
:10190000694600F0020005904FF400400090064840
:1019100001900220029003900448FEF731FE07B0C8
:1019200000BD00001C3802400000111000040240FD
:10193000FEB524482449254A00680144914201D358
:101940000120FEBDFEF7BAFC0022214BFEF73EFC53
:10195000FEF7C1FC044600208DF800008DF804005D
:101960008DF8080000F00AFAC4F307410E4606207D
:1019700000F08EFAC4F307210D46072000F088FA24
:10198000E1B2082000F084FA6946062000F036F93A
:1019900001A9072000F032F902A9082000F02EF971
:1019A0009DF80000B04208D19DF80400A84204D17F
:1019B0009DF80810E0B2884201D00220FEBD002050
:1019C000FEBD00004000002080B85EE681CE341DE0
:1019D00080844E4010B5FFF741FFFFF769FFFFF726
:1019E00087FF00F093F9012000F0C0F8002000F01C
:1019F000F7F9BDE81040002000F0DCB87CB5FFF737
:101A000041FD10B3FFF7E6FF00F02AF900F090F96E
:101A10000021012000F03CFA8021012000F038FA7A
:101A20008121012000F034FA00258DF80050912129
:101A3000242000F02DFA6946242000F0DFF89DF8FC
:101A40000000912803D002207CBD01207CBD4021F4
:101A5000412000F01DFA23210C2000F019FAFFF7B5
:101A600067FF00F055F806210A2000F011FA3B212B
:101A70000B2000F00DFA214C2220E17A00F008FA48
:101A80002179A0790143A07A012801D0012000E04A
:101A9000002001431D2000F0FBF9607A61790128E4
:101AA00008D0002001431E2000F0F2F96079602880
:101AB00002D013E00420F5E78DF8045001A931208D
:101AC00000F09CF89DF8040000F0F8013120491D59
:101AD00000F0DEF90C21372000F0DAF90748083869
:101AE0004068B0F1834F01DD082000E0002040F0A5
:101AF0000401262000F0CCF900207CBD400000202D
:101B0000024610210148FEF70CBE00000000024012
:101B100038B5154C94F907000F2801DD012038BDB8
:101B200000F02CF9E07940F0F001092000F0B0F964
:101B300000208DF800006946092000F05FF894F954
:101B400007009DF8001040F0F000884201D002200C
:101B500038BD207A012805D084214D2000F098F965
:101B6000002038BD8721F8E74000002070B50F49FC
:101B7000044686B0086840F00200086008688D14CA
:101B800000F0020005900120CDE9005002900220F3
:101B9000074E039069463046FEF7F2FC224629467E
:101BA0003046FEF7BEFD06B070BD00001C38024096
:101BB0000004024070B50F49044686B0086840F042
:101BC00004000860086840F2014500F00400059038
:101BD0000120CDE9005002900220074E0390694693
:101BE0003046FEF7CDFC224629463046FEF799FDE9
:101BF00006B070BD1C380240000402400122AFF361
:101C0000008070B5044615460E460020FFF778FFA9
:101C100004F07F0000F014F8002405E0002000F03C
:101C20000FF83055641CE4B2AC42F7D3BDE8704005
:101C30000120FFF765BF0A4601460020FFF7E1BF1C
:101C400001B582B04FF47A700090012301AA02A975
:101C50000248FFF79DF99DF804000EBD4C000020DE
:101C600010B50020FFF782FF0220FEF731FC0120B3
:101C7000FFF77CFFBDE810400F20FEF729BC0000F5
:101C80007CB5054601A91920FFF7B8FF9DF804109F
:101C90001C4C080607D5C843401CC0F385008DF8CE
:101CA0000400404202E088088DF804006081694623
:101CB0001A20FFF7A3FFB4F90A00002803DA9DF801
:101CC0000010081A05E09DF8000000010F21B0FB8C
:101CD000F1F0A43820810C4CA07A012808D104F13D
:101CE0000B011320FFF78AFF00210D2000F0D0F830
:101CF000E17A2846FFF79FFFFF21122000F0C8F885
:101D00007CBD0000E00000204000002000B585B050
:101D100010200090012001900020029003200390E9
:101D200069460248FEF72CFC05B000BD00000240E9
:101D300010B5114C0F484FF4007120604FF48270C1
:101D400060600020A060E0602061C4E90501E061FE
:101D500020626062A0620A20E0622046FFF7AAF8D3
:101D600008B1FEF7B3FB2068016841F04001016053
:101D700010BD0000003001404C00002081210120F6
:101D800000F086B810B58121012000F081F8002113
:101D9000202000F07DF80A21212000F079F80F487A
:101DA000C17A222000F074F80020FFF740FD0021E6
:101DB0000D2000F06DF8FF21122000F069F8BF211E
:101DC000112000F065F80021402000F061F8852125
:101DD000BDE81040012000F05BB80000400000208A
:101DE00030B50F49044687B0086840F0020008602B
:101DF00008680C4D00F002000590062000900120BC
:101E0000019002900220039069462846FEF7B8FB35
:101E1000224606212846FEF784FC07B030BD0000AC
:101E20001C3802400004024070B5054681210120A3
:101E300000F02EF80021202000F02AF80A212120AD
:101E400000F026F8114C2220E17A00F021F8012060
:101E5000FFF7EDFC80210D2000F01AF8E27A294608
:101E6000002000F01BF8FF21122000F011F8F721EC
:101E7000112000F00DF84021084600F009F8BDE8F7
:101E800070408321012000F003B8000040000020D2
:101E900013B5012201A900F001F81CBD70B504467C
:101EA00015460E460020FFF72BFE44F08000FFF79A
:101EB000C7FE002404E0305DFFF7C2FE641CE4B2FC
:101EC000AC42F8D3BDE870400120FFF719BEFEF721
:101ED00033BC000000B593B034216846FEF72DF9FD
:101EE00014210DA8FEF729F91148016821F4C05109
:101EF00041F40061016001200090019002200990EE
:101F0000C0030A9000010B90C0000C906846FEF7D9
:101F1000BDFD0F200D9003200E9000200F9010901B
:101F2000119001210DA8FEF7AFFC13B000BD000019
:101F3000007000400F48016841F4807101600D4954
:101F400008310A680C4B1A400A6002680B4B1A40B1
:101F50000260026822F480220260086820F47D009A
:101F600008600020091D086005494FF00060086006
:101F700070470000003802400CC0FF88FEFFFEEEF4
:101F800008ED00E00148FFF7CFB90000A4000020F1
:101F900070B502684FF08046154B164CB04203D026
:101FA000984201D0A04205D122F070054A682A4328
:101FB000B0420CD098420AD0A04208D00E4B9842B2
:101FC00005D00E4B984202D00D4B984203D122F41B
:101FD0004073CA681A430B6922F080021A430260F8
:101FE0008A68C262096881620121416170BD000096
:101FF000000400400008004000080140000C0140BF
:102000000010014010B5846842EA032224F47F44A2
:102010000A432243826010BD826822F070020A43A4
:1020200042F007018160704710B5036A046A24F02A
:1020300001040462846924F0F00444EA021423F0E9
:102040000A020A438461026210BD10B5036A23F0DC
:10205000100303628369046A23F4704343EA023283
:1020600024F0A00343EA01118261016210BDFEE782
:102070000907090E002804DB00F1E02080F80014B5
:10208000704700F00F0000F1E02080F8141D704749
:1020900002E008C8121F08C1002AFAD17047704731
:1020A000002001E001C1121F002AFBD1704700008F
:1020B00010B508210E48FEF729FB0E4C80B1002216
:1020C00001212046FEF72DFB012202212046FEF7CA
:1020D00028FB20460122BDE810400421FEF721BB69
:1020E000012211462046FEF71CFB0022EDE700000E
:1020F00000040240000002401FB5FEF725FBFFF779
:10210000E9FEFFF72FFAFFF7C9FA0026464C0096C2
:10211000019602964348039620604FF6FF10C4E9EB
:10212000010647F22F50C4E9030680206061204673
:10213000FFF733F84FF48050009069462046FFF7D0
:1021400087F8DFF8E8900122D1024846FEF7E9FA65
:1021500037480425016837480160702101719021DA
:10216000417185710F21C17101210172417281722A
:102170000821C172FFF742FC0028FBD1FFF798FF4E
:102180002948FFF754F821686FF0010008612068C2
:102190004662FEF781F9FFF7F5FDDFF8948003272B
:1021A000A8F1110808F10806A6F10B04A07801288F
:1021B00021D0022818D00328F8D16420FEF788F92E
:1021C000FEF76AF988F8007008214846FEF79EFA83
:1021D00040B1FF21164888F801101138FFF724FE9E
:1021E000A570E3E77721F5E7FFF7C8FDFEF754F99F
:1021F000FFF7C8FDF4E7FEF74DF90D480938FFF782
:102200003FFD3220FEF764F93078032802D0022027
:10221000A070CBE7B078772801D000F00DF8A77058
:10222000C4E7000000100140A400002000040240A8
:10223000140000204000002010B51F4C082120464B
:10224000FEF764FA012835D01C480178F1B11C4C26
:1022500004212046FEF75FFAC820FEF739F9042171
:102260002046FEF758FAC820FEF732F9042120462E
:10227000FEF751FAC820FEF72BF904212046FEF79D
:102280004AFABDE81040C820FEF722B901210170CA
:102290000C48FEF7BBFF012220212046FEF741FA41
:1022A0006420FEF715F920460022BDE810402021E9
:1022B000FEF737BA10BD0000000402400000002005
:1022C00000000240A4000020030406080C1018209F
:1022D00030000000000000000001020304060708AF
:1022E0000900000004230008000000204C0000004A
:1022F00090200008502300084C000020A404000097
:10230000A020000800000000000000000000000005
:10231000000000000000000080D60F1C40FF7A1D66
:1023200080FB651E00A1BC33C0CA893610000000C6
:10233000010000000000000068FF1F000000FA43D9
:102340006F12833F80A1031C9080020F01010140A6
:04000005080000F5FA
:00000001FF
